:100000000C945A000C9477000C9477000C947700B1
:100010000C9477000C9477000C9477000C94770084
:100020000C9477000C9477000C9477000C94E80003
:100030000C94DD000C9477000C9401010C94770073
:100040000C9477000C9477000C9418010C947700B2
:100050000C9477000C9477000C9477000C94770044
:100060000C9477000C9477000C9477000C94770034
:100070000C9477000C9477000C9477000C94770024
:100080000C9477000C9477000C9477000C94770014
:100090000C9477000C9477000C9477000C94770004
:1000A0000C9477000C9477000C9477000C947700F4
:1000B0000C94770011241FBECFEFD8E0DEBFCDBF78
:1000C00011E0A0E0B1E0E2EDF9E002C005900D9290
:1000D000A233B107D9F721E0A2E3B1E001C01D923C
:1000E000AF3DB207E1F70E949D010C94E7040C9428
:1000F000000084B5826084BD89EF87BD82E0809373
:100100006E0083E085BD0895E0E8F0E080818362C1
:100110008083E1E8F0E0808188618083A8E8B0E036
:1001200088E09DE311969C938E938D919C9101960E
:1001300096958795019790938B0080938A00AFE600
:10014000B0E08C9186608C93808184608083089578
:100150009093C5008093C40088E18093C1008EE035
:100160008093C20008951092860110928801109227
:100170008701E1ECF0E08081806880830895CF936F
:10018000DF93C0E0D0E008C0AC0FBD1F60E071E0BD
:100190008C910E940C022196A0910E01B0910F014A
:1001A000FD0101900020E9F73197EA1BFB0BCE1708
:1001B000DF0750F3DF91CF9108951F920F920FB692
:1001C0000F9211242D980F900FBE0F901F9018952D
:1001D0001F920F920FB60F9211248F939F938091CD
:1001E000100190911101892B11F41F9902C02D9AD1
:1001F00001C02D989F918F910F900FBE0F901F906F
:1002000018951F920F920FB60F9211248F939F9300
:100210008091320190913301019690933301809344
:1002200032019F918F910F900FBE0F901F901895E4
:100230001F920F920FB60F9211242F933F938F931B
:100240009F93EF93FF93E6ECF0E0808180838D3005
:1002500019F18F3751F480918701909188010197AE
:10026000909388018093870126C020918701309167
:100270008801F901E757FE4F80832F3431053CF4A4
:100280002F5F3F4F309388012093870114C0109255
:100290008801109287010FC0E0918701F0918801D9
:1002A000E757FE4F108281E080938601E1ECF0E099
:1002B000808180588083FF91EF919F918F913F9132
:1002C0002F910F900FBE0F901F901895609187018E
:1002D000709188016115710519F06150710902C0B2
:1002E0006FE470E041E050E080E090E01FC030E05B
:1002F00020533109249FF001259FF00D349FF00D0C
:1003000011248E0F9F1F9A01220F331F440F551F78
:10031000440F551F440F551F420F531F61157105A0
:1003200019F06150710902C06FE470E0FB01E757FA
:10033000FE4F20812111DBCF08952798259A87E66B
:1003400090E00E94A8000E9484000E9479007894A6
:100350000E94B300C8E8D0E00AE810E00F2EF3E8EE
:10036000EF2EFEE1FF2EF02D8091320190913301AE
:100370008838934144F010923301109232010E9468
:10038000BF000E94B3001F990CC0F982E8828881E7
:1003900099810196969587950197F80191838083BD
:1003A000E3CF80918601882379F00E9466019093C3
:1003B0001101809310018091100190911101892BFE
:1003C00009F42D980E94B3008091100190911101C1
:1003D000892BC1F06091100170911101072E000C62
:1003E000880B990B0E94F0039B01AC0160E074E262
:1003F00084E797E40E9446030E94B80361507109A4
:10040000798368838881998101969695879501976C
:10041000F80191838083A8CFCF93C82F873069F4E8
:100420002091DD013091DE0147E050E061E070E0B5
:1004300089E291E00E947C040CC08A3019F48DE0BE
:100440000E940C02E0ECF0E0808185FFFDCFC093BC
:10045000C60080E090E0CF9108956F927F928F92D6
:100460009F92AF92BF92CF92DF92EF92FF920F9343
:100470001F93CF93DF932091840130918501232B2B
:1004800009F0DAC08C010F2EF4E38F2EF1E09F2EDD
:10049000F02DC0ECD0E00F2EF6ECCF2ED12CF02DAD
:1004A00054010F2EF3E36F2EF1E07F2EF02D8881A3
:1004B0008823ECF7888184FDD2C0888183FDD2C077
:1004C000F60180818D3011F08A3069F48AE0F40100
:1004D0008083B8010E940C0284E391E0909385012F
:1004E00080938401A9C0893039F090EE980F9F3530
:1004F00020F0803AB8F001C080E2F3E88F16F1E016
:100500009F0629F4B80187E00E940C02D0CF740145
:100510009FEFE91AF90AF4018083B8010E940C02E6
:100520004701C5CF8231D1F130F4833009F49DC049
:100530008830E9F0BCCF873129F08F37C1F08531A1
:1005400079F0B5CFF4E38F16F1E09F0609F008F4D7
:10055000AECFF40131978081803209F052C0A7CF2D
:1005600084E3881681E0980609F098F5A0CF94E31B
:10057000891691E0990609F008F499CFB80188E04E
:100580000E940C02B80180E20E940C02B80188E0CF
:100590000E940C02E1E08E1A910889CFB8018DE02B
:1005A0000E940C02F4E38F16F1E09F0609F008F4B4
:1005B0007ECF0F2EF4E3EF2EF1E0FF2EF02DB801E9
:1005C000F70181917F010E940C028E149F04B9F7FC
:1005D0006ECFB80188E00E940C02B80180E20E9450
:1005E0000C02B80188E00E940C02F1E08F1A910819
:1005F00084E3881681E0980661F7F30131964F0194
:1006000056CF7401F1E0EF1AF108B80188E00E94BA
:100610000C02B80180E20E940C02B80188E00E943E
:100620000C024701EA14FB0409F441CFF70182915F
:100630007F01803251F73BCFE0918401F091850139
:10064000CF010196909385018093840180818A3047
:1006500021F4109285011092840190E008C08EEF81
:100660009FEF05C08FEF9FEF02C08FEF9FEFDF91ED
:10067000CF911F910F91FF90EF90DF90CF90BF909F
:10068000AF909F908F907F906F9008950E945A0333
:100690000C9442040E943B0458F00E94340440F041
:1006A00029F45F3F29F00C942B0451110C9476042B
:1006B0000C9431040E94530468F39923B1F3552339
:1006C00091F3951B550BBB27AA2762177307840765
:1006D00038F09F5F5F4F220F331F441FAA1FA9F3FB
:1006E00035D00E2E3AF0E0E832D091505040E695E9
:1006F000001CCAF72BD0FE2F29D0660F771F881F4A
:10070000BB1F261737074807AB07B0E809F0BB0B3C
:10071000802DBF01FF2793585F4F3AF09E3F510550
:1007200078F00C942B040C9476045F3FE4F3983E2D
:10073000D4F3869577956795B795F7959F5FC9F739
:10074000880F911D9695879597F90895E1E0660FBA
:10075000771F881FBB1F621773078407BA0720F033
:10076000621B730B840BBA0BEE1F88F7E09508959C
:100770000E94BF036894B1110C94760408950E94FE
:100780005B0488F09F5798F0B92F9927B751B0F0C4
:10079000E1F0660F771F881F991F1AF0BA95C9F705
:1007A00014C0B13091F00E947504B1E008950C942A
:1007B0007504672F782F8827B85F39F0B93FCCF3DD
:1007C000869577956795B395D9F73EF49095809582
:1007D000709561957F4F8F4F9F4F0895E89409C0A2
:1007E00097FB3EF490958095709561957F4F8F4F64
:1007F0009F4F9923A9F0F92F96E9BB279395F6957A
:10080000879577956795B795F111F8CFFAF4BB0FF7
:1008100011F460FF1BC06F5F7F4F8F4F9F4F16C05B
:10082000882311F096E911C0772321F09EE8872FE5
:10083000762F05C0662371F096E8862F70E060E0A1
:100840002AF09A95660F771F881FDAF7880F96951A
:10085000879597F9089597F99F6780E870E060E0C1
:1008600008959FEF80EC089500240A941616170649
:1008700018060906089500240A9412161306140691
:1008800005060895092E0394000C11F4882352F0F4
:10089000BB0F40F4BF2B11F460FF04C06F5F7F4FAC
:1008A0008F4F9F4F089557FD9058440F551F59F093
:1008B0005F3F71F04795880F97FB991F61F09F3F4D
:1008C00079F087950895121613061406551FF2CF76
:1008D0004695F1DF08C0161617061806991FF1CFC6
:1008E00086957105610508940895E894BB276627ED
:1008F0007727CB0197F90895A0E0B0E0E2E8F4E0B3
:100900000C94B6045B014A017901D90113962C912C
:1009100021FF1DC0C0E0D0E0C815D905D9F08C0179
:100920006C01CA0CDB1CC8010C151D0571F00F5FB2
:100930001F4FD7011896ED91FC911997B701DC0173
:100940008C910995892B79F305C02196E5CF80E03C
:1009500090E001C0CE01CDB7DEB7ECE00C94D2043C
:100960002F923F924F925F926F927F928F929F92BF
:10097000AF92BF92CF92DF92EF92FF920F931F93AD
:10098000CF93DF93CDB7DEB7CA1BDB0B0FB6F8945E
:10099000DEBF0FBECDBF09942A88398848885F849E
:1009A0006E847D848C849B84AA84B984C884DF800F
:1009B000EE80FD800C811B81AA81B981CE0FD11DF3
:1009C0000FB6F894DEBF0FBECDBFED010895F894C9
:0209D000FFCF57
:1009D20000000003000000000C022D0200001201C2
:1009E20002000A53776974636820746F2066726527
:1009F2007175656E63793A20002A72696E672A0AF8
:020A02000000F2
:00000001FF
