:100000000C945A000C9477000C9477000C947700B1
:100010000C9477000C9477000C9477000C94770084
:100020000C9477000C9477000C9477000C941401D6
:100030000C9409010C9477000C941F010C94770028
:100040000C9477000C9477000C9477000C94770054
:100050000C9477000C9477000C9477000C94770044
:100060000C9477000C9477000C9477000C94770034
:100070000C9477000C9477000C9477000C94770024
:100080000C9477000C9477000C9477000C94770014
:100090000C9477000C9477000C9477000C94770004
:1000A0000C9477000C9477000C9477000C947700F4
:1000B0000C94770011241FBECFEFD8E0DEBFCDBF78
:1000C00011E0A0E0B1E0E6E2F6E002C005900D929A
:1000D000AA34B107D9F721E0AAE4B1E001C01D922A
:1000E000A43FB207E1F70E9441010C9411030C9464
:1000F000000084B5826084BD89EF87BD82E0809373
:100100006E0083E085BD0895E0E8F0E080818362C1
:100110008083E1E8F0E0808188618083A8E8B0E036
:1001200081E19AE711969C938E938D919C91019613
:1001300096958795019790938B0080938A00AFE600
:10014000B0E08C9186608C93808184608083089578
:100150000F931F93CF93DF930AE411E0C0E0D0E048
:1001600080E091E00E948401F80181938F01219643
:100170008A3011F08111F4CFC65BDE4F18828AE419
:1001800091E0DF91CF911F910F910895CF93DF936D
:10019000C0E0D0E008C0AC0FBD1F60E071E08C9102
:1001A0000E9463012196A0910E01B0910F01FD0103
:1001B00001900020E9F73197EA1BFB0BCE17DF0710
:1001C00050F3DF91CF91089580918800909189003C
:1001D00081319A4739F483E89EE1909389008093B6
:1001E00088000AC0E8E8F0E083E89EE1918380831C
:1001F00081E19AE7918380838091880090918900C2
:10020000019696958795019790938B0080938A002D
:1002100008951F920F920FB60F9211241D980F9000
:100220000FBE0F901F9018951F920F920FB60F924E
:1002300011241D9A0F900FBE0F901F9018951F92BA
:100240000F920FB60F9211248F939F9380919A0172
:1002500090919B01019690939B0180939A019F91AD
:100260008F910F900FBE0F901F9018959093C5001F
:100270008093C40088E18093C1008EE08093C20027
:10028000089587E690E00E943601259A0E94840036
:100290000E947900789480919A0190919B0180311D
:1002A0009742CCF310929B0110929A010E94C600D3
:1002B0000E94A80060E171E00E949D02892B59F71D
:1002C0000E94E400E8CFCF93C82F873069F42091D3
:1002D000F2013091F30147E050E061E070E081E429
:1002E00091E00E94A6020CC08A3019F48DE00E94B1
:1002F0006301E0ECF0E0808185FFFDCFC093C60094
:1003000080E090E0CF9108956F927F928F929F92BC
:10031000AF92BF92CF92DF92EF92FF920F931F9313
:10032000CF93DF932091EC013091ED01232B09F065
:10033000DAC08C010F2EFCE98F2EF1E09F2EF02DFC
:10034000C0ECD0E00F2EF6ECCF2ED12CF02D5401C6
:100350000F2EFBE96F2EF1E07F2EF02D8881882390
:10036000ECF7888184FDD2C0888183FDD2C0F6017C
:1003700080818D3011F08A3069F48AE0F401808345
:10038000B8010E9463018CE991E09093ED018093A4
:10039000EC01A9C0893039F090EE980F9F3520F01C
:1003A000803AB8F001C080E2FBEE8F16F1E09F06C4
:1003B00029F4B80187E00E946301D0CF74019FEF58
:1003C000E91AF90AF4018083B8010E946301470128
:1003D000C5CF8231D1F130F4833009F49DC088302B
:1003E000E9F0BCCF873129F08F37C1F0853179F042
:1003F000B5CFFCE98F16F1E09F0609F008F4AECF07
:10040000F40131978081803209F052C0A7CF8CE986
:10041000881681E0980609F098F5A0CF9CE9891626
:1004200091E0990609F008F499CFB80188E00E949C
:100430006301B80180E20E946301B80188E00E9474
:100440006301E1E08E1A910889CFB8018DE00E9426
:100450006301FCE98F16F1E09F0609F008F47ECFF6
:100460000F2EFCE9EF2EF1E0FF2EF02DB801F70181
:1004700081917F010E9463018E149F04B9F76ECFB2
:10048000B80188E00E946301B80180E20E94630124
:10049000B80188E00E946301F1E08F1A91088CE9AD
:1004A000881681E0980661F7F30131964F0156CF27
:1004B0007401F1E0EF1AF108B80188E00E946301CD
:1004C000B80180E20E946301B80188E00E946301E4
:1004D0004701EA14FB0409F441CFF70182917F013F
:1004E000803251F73BCFE091EC01F091ED01CF016B
:1004F00001969093ED018093EC0180818A3021F484
:100500001092ED011092EC0190E008C08EEF9FEF89
:1005100005C08FEF9FEF02C08FEF9FEFDF91CF916C
:100520001F910F91FF90EF90DF90CF90BF90AF9011
:100530009F908F907F906F900895FB01DC018D91CB
:10054000019080190110D9F3990B0895A0E0B0E053
:10055000ECEAF2E00C94E0025B014A017901D90176
:1005600013962C9121FF1DC0C0E0D0E0C815D9051D
:10057000D9F08C016C01CA0CDB1CC8010C151D05DF
:1005800071F00F5F1F4FD7011896ED91FC911997ED
:10059000B701DC018C910995892B79F305C021966F
:1005A000E5CF80E090E001C0CE01CDB7DEB7ECE052
:1005B0000C94FC022F923F924F925F926F927F9227
:1005C0008F929F92AF92BF92CF92DF92EF92FF9263
:1005D0000F931F93CF93DF93CDB7DEB7CA1BDB0B0F
:1005E0000FB6F894DEBF0FBECDBF09942A883988B4
:1005F00048885F846E847D848C849B84AA84B984BB
:10060000C884DF80EE80FD800C811B81AA81B981C6
:10061000CE0FD11D0FB6F894DEBF0FBECDBFED01DA
:060620000895F894FFCFDD
:1006260000000003000000006301840100001501C2
:100636005945530A000A446F20796F752077616E19
:100646007420746F206368616E6765207468652026
:100656004C4544206D6F64653F2028592F4E290A6A
:0A066600002A72696E672A0A00007C
:00000001FF
