:100000000C945A000C9477000C9477000C947700B1
:100010000C9477000C9477000C9477000C94770084
:100020000C9477000C9477000C9477000C94770074
:100030000C9477000C9477000C9454010C94770086
:100040000C9477000C9477000C9477000C94770054
:100050000C9477000C946B010C9477000C9477004F
:100060000C9477000C9477000C9477000C94770034
:100070000C9477000C9477000C9477000C94770024
:100080000C9477000C9477000C9477000C94770014
:100090000C9477000C9477000C9477000C94770004
:1000A0000C9477000C9477000C9477000C947700F4
:1000B0000C94770011241FBECFEFD8E0DEBFCDBF78
:1000C00011E0A0E0B1E0EAEFF9E002C005900D9286
:1000D000A633B107D9F721E0A6E3B1E001C01D9234
:1000E000A939B207E1F70E94D7010C94FB040C94E4
:1000F000000084B5826084BD89EF87BD82E0809373
:100100006E0083E085BD0895EAE7F0E080818E68A7
:10011000808384E080937C000895EAE7F0E08081AA
:100120008064808308959093C5008093C40088E123
:100130008093C1008EE08093C20008958DE284B95F
:1001400083E58CBD0895CF92DF92EF92FF92CF931B
:10015000DF936B017C010E943703CAE0D0E0CB0142
:10016000BE010E94680460E071E0805D0E94FD01B4
:1001700060E071E08EE20E94FD0120E030E040E2AC
:1001800051E4C701B6010E94D3030E943703CB019B
:10019000BE010E94680460E071E0805D0E94FD0184
:1001A00020E030E048EC52E4C701B6010E94D303DE
:1001B0000E943703CB01BE010E94680460E071E039
:1001C000805D0E94FD0160E071E08AE00E94FD0117
:1001D000DF91CF91FF90EF90DF90CF900895CF9374
:1001E000DF93C0E0D0E008C0AC0FBD1F60E071E05D
:1001F0008C910E94FD012196A0911001B0911101F6
:10020000FD0101900020E9F73197EA1BFB0BCE17A7
:10021000DF0750F360913B0170913C0180913D01FB
:1002200090913E010E94A300C0E0D0E008C0AC0F56
:10023000BD1F60E071E08C910E94FD012196A091AC
:100240000E01B0910F01FD0101900020E9F73197F7
:10025000EA1BFB0BCE17DF0750F36091370170915B
:1002600038018091390190913A010E94A30060E029
:1002700071E08AE00E94FD01DF91CF9108952A98F4
:10028000289A90679EBD0DB407FEFDCF8EBD0DB4BC
:1002900007FEFDCF2A9A289885E080937C000E9473
:1002A0008D008EB590E008951F920F920FB60F92B9
:1002B00011248F939F9380913F019091400101966B
:1002C0009093400180933F019F918F910F900FBEBB
:1002D0000F901F9018951F920F920FB60F92112436
:1002E0002F933F934F935F936F937F938F939F933E
:1002F000AF93BF93CF93DF93EF93FF9380917C00F5
:10030000843019F0853019F13FC0C8E7D0E068812A
:10031000798180E090E00E946D0320E030E040EAC7
:100320005BE30E94D30360933B0170933C01809395
:100330003D0190933E0185E080937C008881998106
:10034000880F991F880F991F0E943F011DC060915F
:1003500078007091790080E090E00E946D0320E0C9
:1003600030E040EA5BE30E94D3036093370170936F
:1003700038018093390190933A0181E080933601EE
:10038000289A84E080937C00FF91EF91DF91CF91D8
:10039000BF91AF919F918F917F916F915F914F919D
:1003A0003F912F910F900FBE0F901F9018950E94B4
:1003B000790087E690E00E9493000E9484000E94EA
:1003C0009E0078940CE710E0C4E080913F0190918A
:1003D00040018336910540F01092400110923F0198
:1003E000F801C0830E948D0080913601882369F353
:1003F0000E94EF0010923601E8CFCF93C82F8730CC
:1004000069F4209197013091980147E050E061E054
:1004100070E08EE291E00E9490040CC08A3019F4E2
:100420008DE00E94FD01E0ECF0E0808185FFFDCFD2
:10043000C093C60080E090E0CF9108956F927F92C4
:100440008F929F92AF92BF92CF92DF92EF92FF92E4
:100450000F931F93CF93DF932091910130919201DD
:10046000232B09F0DAC08C010F2EF1E48F2EF1E07E
:100470009F2EF02DC0ECD0E00F2EF6ECCF2ED12C1D
:10048000F02D54010F2EF0E46F2EF1E07F2EF02DB1
:1004900088818823ECF7888184FDD2C0888183FD20
:1004A000D2C0F60180818D3011F08A3069F48AE083
:1004B000F4018083B8010E94FD0181E491E09093F2
:1004C000920180939101A9C0893039F090EE980F84
:1004D0009F3520F0803AB8F001C080E2F0E98F1635
:1004E000F1E09F0629F4B80187E00E94FD01D0CF1A
:1004F00074019FEFE91AF90AF4018083B8010E94A0
:10050000FD014701C5CF8231D1F130F4833009F4C8
:100510009DC08830E9F0BCCF873129F08F37C1F01A
:10052000853179F0B5CFF1E48F16F1E09F0609F03F
:1005300008F4AECFF40131978081803209F052C0C7
:10054000A7CF81E4881681E0980609F098F5A0CF3E
:1005500091E4891691E0990609F008F499CFB80161
:1005600088E00E94FD01B80180E20E94FD01B8010F
:1005700088E00E94FD01E1E08E1A910889CFB80160
:100580008DE00E94FD01F1E48F16F1E09F0609F075
:1005900008F47ECF0F2EF1E4EF2EF1E0FF2EF02DC8
:1005A000B801F70181917F010E94FD018E149F0423
:1005B000B9F76ECFB80188E00E94FD01B80180E272
:1005C0000E94FD01B80188E00E94FD01F1E08F1A50
:1005D000910881E4881681E0980661F7F30131966D
:1005E0004F0156CF7401F1E0EF1AF108B80188E02D
:1005F0000E94FD01B80180E20E94FD01B80188E07F
:100600000E94FD014701EA14FB0409F441CFF70100
:1006100082917F01803251F73BCFE0919101F091BF
:100620009201CF0101969093920180939101808174
:100630008A3021F4109292011092910190E008C04A
:100640008EEF9FEF05C08FEF9FEF02C08FEF9FEF00
:10065000DF91CF911F910F91FF90EF90DF90CF909E
:10066000BF90AF909F908F907F906F9008950E9461
:100670003E036894B1110C94CD0308950E94B20317
:1006800088F09F5798F0B92F9927B751B0F0E1F053
:10069000660F771F881F991F1AF0BA95C9F714C003
:1006A000B13091F00E94CC03B1E008950C94CC03DA
:1006B000672F782F8827B85F39F0B93FCCF386953C
:1006C00077956795B395D9F73EF490958095709599
:1006D00061957F4F8F4F9F4F0895E89409C097FB16
:1006E0003EF490958095709561957F4F8F4F9F4F09
:1006F0009923A9F0F92F96E9BB279395F69587954D
:1007000077956795B795F111F8CFFAF4BB0F11F40F
:1007100060FF1BC06F5F7F4F8F4F9F4F16C08823B6
:1007200011F096E911C0772321F09EE8872F762FEC
:1007300005C0662371F096E8862F70E060E02AF02D
:100740009A95660F771F881FDAF7880F9695879519
:1007500097F9089557FD9058440F551F59F05F3F82
:1007600071F04795880F97FB991F61F09F3F79F0D3
:1007700087950895121613061406551FF2CF469555
:10078000F1DF08C0161617061806991FF1CF8695D7
:100790007105610508940895E894BB2766277727BB
:1007A000CB0197F908950E94E6030C9457040E9428
:1007B000490438F00E94500420F0952311F00C9465
:1007C00040040C94460411240C94CD030E94AA0307
:1007D00070F3959FC1F3950F50E0551F629FF00194
:1007E000729FBB27F00DB11D639FAA27F00DB11DAD
:1007F000AA1F649F6627B00DA11D661F829F222736
:10080000B00DA11D621F739FB00DA11D621F839FBC
:10081000A00D611D221F749F3327A00D611D231F92
:10082000849F600D211D822F762F6A2F11249F57E0
:1008300050409AF0F1F088234AF0EE0FFF1FBB1FE3
:10084000661F771F881F91505040A9F79E3F5105A2
:1008500080F00C9440040C94CD035F3FE4F3983E89
:10086000D4F3869577956795B795F795E7959F5F4C
:10087000C1F7FE2B880F911D9695879597F90895DE
:1008800097F99F6780E870E060E008959FEF80EC43
:10089000089500240A9416161706180609060895E6
:1008A00000240A9412161306140605060895092E4C
:1008B0000394000C11F4882352F0BB0F40F4BF2BBB
:1008C00011F460FF04C06F5F7F4F8F4F9F4F0895FB
:1008D00097FB072E16F4009407D077FD09D00E94ED
:1008E0007C0407FC05D03EF4909581959F4F0895B8
:1008F000709561957F4F0895AA1BBB1B51E107C0FE
:10090000AA1FBB1FA617B70710F0A61BB70B881F9F
:10091000991F5A95A9F780959095BC01CD0108952E
:10092000A0E0B0E0E6E9F4E00C94CA045B014A01FF
:100930007901D90113962C9121FF1DC0C0E0D0E0B0
:10094000C815D905D9F08C016C01CA0CDB1CC80193
:100950000C151D0571F00F5F1F4FD7011896ED9113
:10096000FC911997B701DC018C910995892B79F3DA
:1009700005C02196E5CF80E090E001C0CE01CDB763
:10098000DEB7ECE00C94E6042F923F924F925F9218
:100990006F927F928F929F92AF92BF92CF92DF928F
:1009A000EF92FF920F931F93CF93DF93CDB7DEB7F4
:1009B000CA1BDB0B0FB6F894DEBF0FBECDBF099488
:1009C0002A88398848885F846E847D848C849B84DF
:1009D000AA84B984C884DF80EE80FD800C811B81ED
:1009E000AA81B981CE0FD11D0FB6F894DEBF0FBE1C
:0A09F000CDBFED010895F894FFCF8C
:1009FA000000000300000000FD011E0200001201B9
:100A0A00200144414320566F6C746167653A2000A7
:100A1A00506F7420566F6C746167653A20002A72B1
:060A2A00696E672A0A0054
:00000001FF
