:1000000059C000005FC000005EC000005BC000007F
:1000100059C0000057C0000055C0000053C0000088
:1000200051C000004FC000004DC000004BC0000098
:1000300049C0000047C0000045C0000043C00000A8
:1000400041C000003FC000003DC000003BC00000B8
:1000500039C0000037C0000035C0000033C00000C8
:1000600031C000002FC000002DC000002BC00000D8
:1000700029C0000027C0000025C0000023C00000E8
:1000800021C000001FC000001DC000001BC00000F8
:1000900019C0000017C0000015C0000013C0000008
:1000A00011C000000FC000000DC000000BC0000018
:1000B00009C0000011241FBECFEFD8E0DEBFCDBFC6
:1000C00022D03FC09DCF1F920F920FB60F921124E6
:1000D0002F938F939F938FE39CE90197F1F700C0D3
:1000E000000058989FEF23E284EF91502040804019
:1000F000E1F700C000009F918F912F910F900FBEEC
:100100000F901F901895509A5398E9E6F0E080817F
:1001100088608083E99A7894589A2FE78DE094E07C
:10012000215080409040E1F700C0000058982FE730
:100130008DE094E0215080409040E1F700C0000045
:06014000EBCFF894FFCFA5
:00000001FF
