S019000045434533343131315F4C616254657374322E7372656304
S11300000C945A000C9477000C94F5000C94D000D6
S11300100C9477000C9477000C9477000C94770080
S11300200C9477000C9477000C9477000C94640182
S11300300C94CC010C9477000C9418010C94770068
S11300400C9477000C9477000C9477000C94770050
S11300500C9477000C9477000C9477000C94770040
S11300600C9477000C9477000C9477000C94770030
S11300700C9477000C9477000C9477000C94770020
S11300800C9477000C9477000C9477000C94770010
S11300900C9477000C9477000C9477000C94770000
S11300A00C9477000C9477000C9477000C947700F0
S11300B00C94770011241FBECFEFD8E0DEBFCDBF74
S11300C011E0A0E0B1E0E8EBF8E002C005900D9289
S11300D0A430B107D9F721E0A4E0B1E001C01D923A
S11300E0A830B207E1F70E9434020C945A040C942D
S11300F000006093040170930501809306019093BE
S113010007018091040190910501A0910601B0912D
S11301100701892B8A2B8B2BA1F7089584B5826064
S113012084BD89EF87BD82E080936E0083E085BD46
S11301300895E0E8F0E08081826A8083E1E8F0E0FD
S113014080818861808383E690E090938700809328
S1130150860081E390E0909389008093880085E491
S113016090E090938B0080938A00AFE6B0E08C918E
S113017086608C938081836080830895EBE6F0E051
S1130180808180688083E8E6F0E0808181608083FC
S11301900895E9E6F0E0808188608083E99A089513
S11301A01F920F920FB60F9211248F939F931F9952
S11301B015C08091020190910301843691052CF0C1
S11301C0109203011092020109C0809102019091E2
S11301D00301059690930301809302019F918F91EF
S11301E00F900FBE0F901F9018951F920F920FB68D
S11301F00F9211248F939F9380910001909101019C
S1130200843691052CF0109201011092000109C06E
S113021080910001909101010A96909301018093CD
S113022000019F918F910F900FBE0F901F90189512
S11302301F920F920FB60F9211242F933F934F9357
S11302405F936F937F938F939F93AF93BF93EF933A
S1130250FF938091040190910501A0910601B09152
S11302600701892B8A2B8B2BA1F08091040190919B
S11302700501A0910601B09107010197A109B109F7
S11302808093040190930501A0930601B0930701A4
S11302900AC060910401709105018091060190915A
S11302A007010E947900FF91EF91BF91AF919F9157
S11302B08F917F916F915F914F913F912F910F900B
S11302C00FBE0F901F9018951F920F920FB60F92AA
S11302D01124CF92DF92EF92FF922F933F934F938B
S11302E05F936F937F938F939F93AF93BF93CF93BA
S11302F0DF93EF93FF938091020190910301892B87
S113030029F410928900109288002FC06091020194
S113031070910301C0918600D0918700072E000CD4
S1130320880B990B0E94610320E030E048EC52E412
S11303300E94BE026B017C01BE016F5F7F4F80E0B3
S113034090E00E945F039B01AC01C701B6010E94CB
S1130350ED0320E030E040E85FE30E9451020E9498
S113036030037093890060938800FF91EF91DF91CF
S1130370CF91BF91AF919F918F917F916F915F9139
S11303804F913F912F91FF90EF90DF90CF900F907E
S11303900FBE0F901F9018951F920F920FB60F92D9
S11303A01124CF92DF92EF92FF922F933F934F93BA
S11303B05F936F937F938F939F93AF93BF93CF93E9
S11303C0DF93EF93FF938091000190910101892BBA
S11303D029F410928B0010928A002FC060910001C2
S11303E070910101C0918600D0918700072E000C06
S11303F0880B990B0E94610320E030E048EC52E442
S11304000E94BE026B017C01BE016F5F7F4F80E0E2
S113041090E00E945F039B01AC01C701B6010E94FA
S1130420ED0320E030E040E85FE30E9451020E94C7
S1130430300370938B0060938A00FF91EF91DF91FA
S1130440CF91BF91AF919F918F917F916F915F9168
S11304504F913F912F91FF90EF90DF90CF900F90AD
S11304600FBE0F901F90189584B1866284B92798A7
S113047053980E948E000E9499000E94BE000E9420
S1130480C900789460E170E080E090E00E94790017
S11304902D9A61E170E080E090E00E9479002D984F
S11304A0F1CF5058BB27AA270E9469020C94B303CA
S11304B00E94A50338F00E94AC0320F039F49F3F5A
S11304C019F426F40C94A2030EF4E095E7FB0C94C3
S11304D09C03E92F0E94C40358F3BA1762077307F9
S11304E08407950720F079F4A6F50C94E6030EF43E
S11304F0E0950B2EBA2FA02D0B01B90190010C0130
S1130500CA01A0011124FF27591B99F0593F50F447
S1130510503E68F11A16F040A22F232F342F44279F
S1130520585FF3CF469537952795A795F040539597
S1130530C9F77EF41F16BA0B620B730B840BBAF067
S11305409150A1F0FF0FBB1F661F771F881FC2F7D2
S11305500EC0BA0F621F731F841F48F487957795E6
S11305606795B795F7959E3F08F0B0CF9395880FA0
S113057008F09927EE0F9795879508950E94D20267
S11305800C94B3030E94AC0358F00E94A50340F0FE
S113059029F45F3F29F00C949C0351110C94E70358
S11305A00C94A2030E94C40368F39923B1F3552366
S11305B091F3951B550BBB27AA2762177307840772
S11305C038F09F5F5F4F220F331F441FAA1FA9F308
S11305D035D00E2E3AF0E0E832D091505040E695F6
S11305E0001CCAF72BD0FE2F29D0660F771F881F57
S11305F0BB1F261737074807AB07B0E809F0BB0B4A
S1130600802DBF01FF2793585F4F3AF09E3F51055D
S113061078F00C949C030C94E7035F3FE4F3983E5A
S1130620D4F3869577956795B795F7959F5FC9F746
S1130630880F911D9695879597F90895E1E0660FC7
S1130640771F881FBB1F621773078407BA0720F040
S1130650621B730B840BBA0BEE1F88F7E0950895A9
S11306600E94CC0388F09F5798F0B92F9927B7516F
S1130670B0F0E1F0660F771F881F991F1AF0BA9542
S1130680C9F714C0B13091F00E94E603B1E00895B7
S11306900C94E603672F782F8827B85F39F0B93FA9
S11306A0CCF3869577956795B395D9F73EF49095F5
S11306B08095709561957F4F8F4F9F4F0895E89473
S11306C009C097FB3EF490958095709561957F4F96
S11306D08F4F9F4F9923A9F0F92F96E9BB27939544
S11306E0F695879577956795B795F111F8CFFAF454
S11306F0BB0F11F460FF1BC06F5F7F4F8F4F9F4F85
S113070016C0882311F096E911C0772321F09EE8E2
S1130710872F762F05C0662371F096E8862F70E048
S113072060E02AF09A95660F771F881FDAF7880F22
S11307309695879597F9089597F99F6780E870E0F3
S113074060E008959FEF80EC089500240A94161643
S1130750170618060906089500240A9412161306AB
S1130760140605060895092E0394000C11F4882339
S113077052F0BB0F40F4BF2B11F460FF04C06F5F55
S11307807F4F8F4F9F4F089557FD9058440F551F2B
S113079059F05F3F71F04795880F97FB991F61F0FF
S11307A09F3F79F087950895121613061406551F76
S11307B0F2CF4695F1DF08C0161617061806991FE2
S11307C0F1CF86957105610508940895E894BB27D7
S11307D066277727CB0197F908950E9400040C94AB
S11307E0B3030E94A50338F00E94AC0320F09523C4
S11307F011F00C949C030C94A20311240C94E703B1
S11308000E94C40370F3959FC1F3950F50E0551FE8
S1130810629FF001729FBB27F00DB11D639FAA2751
S1130820F00DB11DAA1F649F6627B00DA11D661FA0
S1130830829F2227B00DA11D621F739FB00DA11DC1
S1130840621F839FA00D611D221F749F3327A00D7B
S1130850611D231F849F600D211D822F762F6A2F17
S113086011249F5750409AF0F1F088234AF0EE0F7C
S1130870FF1FBB1F661F771F881F91505040A9F7A9
S11308809E3F510580F00C949C030C94E7035F3F5A
S1130890E4F3983ED4F3869577956795B795F795E5
S11308A0E7959F5FC1F7FE2B880F911D969587955D
S10B08B097F90895F894FFCFB5
S10708B846003200C0
S9030000FC
