S01400004C61625072616374696365362E73726563A0
S11300000C945A000C946C000C946C000C946C00CE
S11300100C946C000C946C000C946C000C946C00AC
S11300200C946C000C946C000C946C000C941901EE
S11300300C949E000C946C000C946C000C946C005A
S11300400C946C000C946C000C946C000C946C007C
S11300500C946C000C946C000C946C000C946C006C
S11300600C946C000C946C000C946C000C946C005C
S11300700C946C000C946C000C946C000C946C004C
S11300800C946C000C946C000C946C000C946C003C
S11300900C946C000C946C000C946C000C946C002C
S11300A00C946C000C946C000C946C000C946C001C
S11300B00C946C0011241FBECFEFD8E0DEBFCDBF7F
S11300C021E0A0E0B1E001C01D92A530B207E1F744
S11300D00E9487000C946A030C940000E0E8F0E0AE
S11300E0808183628083E1E8F0E08081886180839D
S11300F089EF90E09093890080938800AFE6B0E0A8
S11301008C9186608C938081836080830895279886
S11301102198229A509A0E946E00789481E01F9947
S113012003C080930201FBCF199903C0809301019E
S1130130F6CF1092020110920101F1CF1F920F929B
S11301400FB60F921124CF92DF92EF92FF922F936A
S11301503F934F935F936F937F938F939F93AF934B
S1130160BF93CF93DF93EF93FF935898809103014C
S11301709091040118161906ECF5809103019091F1
S113018004018536910534F084E690E090930401EF
S1130190809303016091030170910401C091880070
S11301A0D0918900072E000C880B990B0E947102D4
S11301B020E030E048EC52E40E94CE016B017C0167
S11301C0BE016F5F7F4F80E090E00E946F029B0151
S11301D0AC01C701B6010E94FD0220E030E040E816
S11301E05FE30E9461010E94400270938B00609360
S11301F08A0008C010928B0010928A0010920401A9
S113020010920301FF91EF91DF91CF91BF91AF91D4
S11302109F918F917F916F915F914F913F912F911A
S1130220FF90EF90DF90CF900F900FBE0F901F9034
S113023018951F920F920FB60F9211248F939F93CC
S1130240589A80910001843681F5809102018823B7
S113025099F08091030190910401843691054CF446
S1130260809103019091040101969093040180937D
S113027003011092020116C080910101882391F0BC
S11302808091030190910401181619064CF4809191
S11302900301909104010197909304018093030159
S11302A0109201018FEF80930001809100018F5F14
S11302B0809300019F918F910F900FBE0F901F901C
S11302C018955058BB27AA270E9479010C94C302A1
S11302D00E94B50238F00E94BC0220F039F49F3F1E
S11302E019F426F40C94B2020EF4E095E7FB0C9496
S11302F0AC02E92F0E94D40258F3BA1762077307BD
S11303008407950720F079F4A6F50C94F6020EF410
S1130310E0950B2EBA2FA02D0B01B90190010C0111
S1130320CA01A0011124FF27591B99F0593F50F429
S1130330503E68F11A16F040A22F232F342F442781
S1130340585FF3CF469537952795A795F040539579
S1130350C9F77EF41F16BA0B620B730B840BBAF049
S11303609150A1F0FF0FBB1F661F771F881FC2F7B4
S11303700EC0BA0F621F731F841F48F487957795C8
S11303806795B795F7959E3F08F0B0CF9395880F82
S113039008F09927EE0F9795879508950E94E2013A
S11303A00C94C3020E94BC0258F00E94B50240F0B3
S11303B029F45F3F29F00C94AC0251110C94F7021C
S11303C00C94B2020E94D40268F39923B1F355232A
S11303D091F3951B550BBB27AA2762177307840754
S11303E038F09F5F5F4F220F331F441FAA1FA9F3EA
S11303F035D00E2E3AF0E0E832D091505040E695D8
S1130400001CCAF72BD0FE2F29D0660F771F881F38
S1130410BB1F261737074807AB07B0E809F0BB0B2B
S1130420802DBF01FF2793585F4F3AF09E3F51053F
S113043078F00C94AC020C94F7025F3FE4F3983E1E
S1130440D4F3869577956795B795F7959F5FC9F728
S1130450880F911D9695879597F90895E1E0660FA9
S1130460771F881FBB1F621773078407BA0720F022
S1130470621B730B840BBA0BEE1F88F7E09508958B
S11304800E94DC0288F09F5798F0B92F9927B75142
S1130490B0F0E1F0660F771F881F991F1AF0BA9524
S11304A0C9F714C0B13091F00E94F602B1E008958A
S11304B00C94F602672F782F8827B85F39F0B93F7C
S11304C0CCF3869577956795B395D9F73EF49095D7
S11304D08095709561957F4F8F4F9F4F0895E89455
S11304E009C097FB3EF490958095709561957F4F78
S11304F08F4F9F4F9923A9F0F92F96E9BB27939526
S1130500F695879577956795B795F111F8CFFAF435
S1130510BB0F11F460FF1BC06F5F7F4F8F4F9F4F66
S113052016C0882311F096E911C0772321F09EE8C4
S1130530872F762F05C0662371F096E8862F70E02A
S113054060E02AF09A95660F771F881FDAF7880F04
S11305509695879597F9089597F99F6780E870E0D5
S113056060E008959FEF80EC089500240A94161625
S1130570170618060906089500240A94121613068D
S1130580140605060895092E0394000C11F488231B
S113059052F0BB0F40F4BF2B11F460FF04C06F5F37
S11305A07F4F8F4F9F4F089557FD9058440F551F0D
S11305B059F05F3F71F04795880F97FB991F61F0E1
S11305C09F3F79F087950895121613061406551F58
S11305D0F2CF4695F1DF08C0161617061806991FC4
S11305E0F1CF86957105610508940895E894BB27B9
S11305F066277727CB0197F908950E9410030C947E
S1130600C3020E94B50238F00E94BC0220F0952378
S113061011F00C94AC020C94B20211240C94F70265
S11306200E94D40270F3959FC1F3950F50E0551FBB
S1130630629FF001729FBB27F00DB11D639FAA2733
S1130640F00DB11DAA1F649F6627B00DA11D661F82
S1130650829F2227B00DA11D621F739FB00DA11DA3
S1130660621F839FA00D611D221F749F3327A00D5D
S1130670611D231F849F600D211D822F762F6A2FF9
S113068011249F5750409AF0F1F088234AF0EE0F5E
S1130690FF1FBB1F661F771F881F91505040A9F78B
S11306A09E3F510580F00C94AC020C94F7025F3F1E
S11306B0E4F3983ED4F3869577956795B795F795C7
S11306C0E7959F5FC1F7FE2B880F911D969587953F
S10B06D097F90895F894FFCF97
S9030000FC
