:100000000C945A000C9477000C9477000C947700B1
:100010000C9477000C9477000C9477000C94770084
:100020000C9477000C9477000C9477000C94770074
:100030000C9477000C9477000C943F010C9477009B
:100040000C9477000C94C9010C9477000C94770001
:100050000C9477000C9456010C9477000C94770064
:100060000C9477000C9477000C9477000C94770034
:100070000C9477000C9477000C9477000C94770024
:100080000C9477000C9477000C9477000C94770014
:100090000C9477000C9477000C9477000C94770004
:1000A0000C9477000C9477000C9477000C947700F4
:1000B0000C94770011241FBECFEFD8E0DEBFCDBF78
:1000C00011E0A0E0B1E0E4E3FAE002C005900D9297
:1000D000A633B107D9F721E0A6E3B1E001C01D9234
:1000E000AB39B207E1F70E94FC010C9418050C949F
:1000F000000084B5826084BD89EF87BD82E0809373
:100100006E0083E085BD0895EAE7F0E080818E68A7
:10011000808384E080937C000895EAE7F0E08081AA
:100120008064808308959093C5008093C40088E123
:100130008093C1008EE08093C20008958DE284B95F
:1001400083ED8CBD0895CF92DF92EF92FF92CF9313
:10015000DF936B017C010E945403CAE0D0E0CB0125
:10016000BE010E94850460E071E0805D0E941A0279
:1001700060E071E08EE20E941A0220E030E040E28E
:1001800051E4C701B6010E94F0030E945403CB0161
:10019000BE010E94850460E071E0805D0E941A0249
:1001A00020E030E048EC52E4C701B6010E94F003C1
:1001B0000E945403CB01BE010E94850460E071E0FF
:1001C000805D0E941A0260E071E08AE00E941A02DB
:1001D000DF91CF91FF90EF90DF90CF900895CF9374
:1001E000DF93C0E0D0E008C0AC0FBD1F60E071E05D
:1001F0008C910E941A022196A0911001B0911101D8
:10020000FD0101900020E9F73197EA1BFB0BCE17A7
:10021000DF0750F360913D0170913E0180913F01F5
:10022000909140010E94A300C0E0D0E008C0AC0F54
:10023000BD1F60E071E08C910E941A022196A0918E
:100240000E01B0910F01FD0101900020E9F73197F7
:10025000EA1BFB0BCE17DF0750F360913901709159
:100260003A0180913B0190913C010E94A30060E023
:1002700071E08AE00E941A02DF91CF9108951F92E7
:100280000F920FB60F9211248F939F93809141018B
:1002900090914201019690934201809341019F9178
:1002A0008F910F900FBE0F901F9018951F920F9275
:1002B0000FB60F9211242F933F934F935F936F9339
:1002C0007F938F939F93AF93BF93CF93DF93EF93DE
:1002D000FF9380917C00843019F0853059F146C03D
:1002E000C8E7D0E06881798180E090E00E948A03CD
:1002F00020E030E040EA5BE30E94F00360933D01C0
:1003000070933E0180933F019093400185E080937C
:100310007C0088819981880F991F880F991F90937D
:100320003801809337012A98289A80913801806794
:100330008EBD1CC0609178007091790080E090E0E3
:100340000E948A0320E030E040EA5BE30E94F00371
:100350006093390170933A0180933B0190933C0183
:10036000289A84E080937C000E94EF00FF91EF9137
:10037000DF91CF91BF91AF919F918F917F916F91BD
:100380005F914F913F912F910F900FBE0F901F9053
:1003900018951F920F920FB60F9211242F933F932F
:1003A0004F935F936F937F938F939F93AF93BF937D
:1003B000EF93FF9380913601811107C081E0809314
:1003C0003601809137018EBD06C0109236012A9AFF
:1003D00028980E948D00FF91EF91BF91AF919F915E
:1003E0008F917F916F915F914F913F912F910F90DE
:1003F0000FBE0F901F9018950E94790087E690E03D
:100400000E9493000E9484000E949E0078940CE752
:1004100010E0C4E08091410190914201873E9340F9
:10042000C8F31092420110924101F801C0830E946A
:100430008D00F0CFCF93C82F873069F420919901B8
:1004400030919A0147E050E061E070E08EE291E087
:100450000E94AD040CC08A3019F48DE00E941A028B
:10046000E0ECF0E0808185FFFDCFC093C60080E026
:1004700090E0CF9108956F927F928F929F92AF926A
:10048000BF92CF92DF92EF92FF920F931F93CF9381
:10049000DF932091930130919401232B09F0DAC06E
:1004A0008C010F2EF3E48F2EF1E09F2EF02DC0EC87
:1004B000D0E00F2EF6ECCF2ED12CF02D54010F2EC4
:1004C000F2E46F2EF1E07F2EF02D88818823ECF787
:1004D000888184FDD2C0888183FDD2C0F6018081ED
:1004E0008D3011F08A3069F48AE0F4018083B8011C
:1004F0000E941A0283E491E0909394018093930107
:10050000A9C0893039F090EE980F9F3520F0803ADD
:10051000B8F001C080E2F2E98F16F1E09F0629F4FD
:10052000B80187E00E941A02D0CF74019FEFE91A48
:10053000F90AF4018083B8010E941A024701C5CF6D
:100540008231D1F130F4833009F49DC08830E9F074
:10055000BCCF873129F08F37C1F0853179F0B5CF25
:10056000F3E48F16F1E09F0609F008F4AECFF40132
:1005700031978081803209F052C0A7CF83E488167A
:1005800081E0980609F098F5A0CF93E4891691E0F0
:10059000990609F008F499CFB80188E00E941A0280
:1005A000B80180E20E941A02B80188E00E941A0293
:1005B000E1E08E1A910889CFB8018DE00E941A02FD
:1005C000F3E48F16F1E09F0609F008F47ECF0F2EBA
:1005D000F3E4EF2EF1E0FF2EF02DB801F701819149
:1005E0007F010E941A028E149F04B9F76ECFB801E2
:1005F00088E00E941A02B80180E20E941A02B80143
:1006000088E00E941A02F1E08F1A910883E48816AC
:1006100081E0980661F7F30131964F0156CF7401DE
:10062000F1E0EF1AF108B80188E00E941A02B8015F
:1006300080E20E941A02B80188E00E941A02470173
:10064000EA14FB0409F441CFF70182917F01803263
:1006500051F73BCFE0919301F0919401CF010196C6
:10066000909394018093930180818A3021F41092B9
:1006700094011092930190E008C08EEF9FEF05C0A7
:100680008FEF9FEF02C08FEF9FEFDF91CF911F9110
:100690000F91FF90EF90DF90CF90BF90AF909F9021
:1006A0008F907F906F9008950E945B036894B111C2
:1006B0000C94EA0308950E94CF0388F09F5798F0A6
:1006C000B92F9927B751B0F0E1F0660F771F881F57
:1006D000991F1AF0BA95C9F714C0B13091F00E9471
:1006E000E903B1E008950C94E903672F782F882778
:1006F000B85F39F0B93FCCF3869577956795B39598
:10070000D9F73EF490958095709561957F4F8F4F06
:100710009F4F0895E89409C097FB3EF4909580950B
:10072000709561957F4F8F4F9F4F9923A9F0F92FB7
:1007300096E9BB279395F695879577956795B79535
:10074000F111F8CFFAF4BB0F11F460FF1BC06F5F1B
:100750007F4F8F4F9F4F16C0882311F096E911C02D
:10076000772321F09EE8872F762F05C0662371F04E
:1007700096E8862F70E060E02AF09A95660F771F62
:10078000881FDAF7880F9695879597F9089557FD92
:100790009058440F551F59F05F3F71F04795880FEF
:1007A00097FB991F61F09F3F79F087950895121686
:1007B00013061406551FF2CF4695F1DF08C0161632
:1007C00017061806991FF1CF8695710561050894E3
:1007D0000895E894BB2766277727CB0197F90895FA
:1007E0000E9403040C9474040E94660438F00E9472
:1007F0006D0420F0952311F00C945D040C946304B7
:1008000011240C94EA030E94C70370F3959FC1F36F
:10081000950F50E0551F629FF001729FBB27F00DAE
:10082000B11D639FAA27F00DB11DAA1F649F662703
:10083000B00DA11D661F829F2227B00DA11D621F52
:10084000739FB00DA11D621F839FA00D611D221F0C
:10085000749F3327A00D611D231F849F600D211DF0
:10086000822F762F6A2F11249F5750409AF0F1F073
:1008700088234AF0EE0FFF1FBB1F661F771F881FDC
:1008800091505040A9F79E3F510580F00C945D04B3
:100890000C94EA035F3FE4F3983ED4F38695779592
:1008A0006795B795F795E7959F5FC1F7FE2B880F82
:1008B000911D9695879597F9089597F99F6780E818
:1008C00070E060E008959FEF80EC089500240A94A2
:1008D0001616170618060906089500240A9412161B
:1008E0001306140605060895092E0394000C11F44E
:1008F000882352F0BB0F40F4BF2B11F460FF04C0FB
:100900006F5F7F4F8F4F9F4F089597FB072E16F411
:10091000009407D077FD09D00E94990407FC05D008
:100920003EF4909581959F4F0895709561957F4F06
:100930000895AA1BBB1B51E107C0AA1FBB1FA61726
:10094000B70710F0A61BB70B881F991F5A95A9F778
:1009500080959095BC01CD010895A0E0B0E0E3EB57
:10096000F4E00C94E7045B014A017901D901139684
:100970002C9121FF1DC0C0E0D0E0C815D905D9F0E9
:100980008C016C01CA0CDB1CC8010C151D0571F033
:100990000F5F1F4FD7011896ED91FC911997B70182
:1009A000DC018C910995892B79F305C02196E5CF5F
:1009B00080E090E001C0CE01CDB7DEB7ECE00C9452
:1009C00003052F923F924F925F926F927F928F9288
:1009D0009F92AF92BF92CF92DF92EF92FF920F93CE
:1009E0001F93CF93DF93CDB7DEB7CA1BDB0B0FB6D8
:1009F000F894DEBF0FBECDBF09942A883988488895
:100A00005F846E847D848C849B84AA84B984C8842A
:100A1000DF80EE80FD800C811B81AA81B981CE0F21
:100A2000D11D0FB6F894DEBF0FBECDBFED01089506
:040A3000F894FFCF68
:100A340000000003000000001A023B020000120143
:100A4400200144414320566F6C746167653A20006D
:100A5400506F7420566F6C746167653A20002A7277
:060A6400696E672A0A001A
:00000001FF
