:100000000C945A000C9477000C9477000C947700B1
:100010000C9477000C9477000C9477000C94770084
:100020000C9477000C9477000C9477000C94770074
:100030000C9477000C9477000C94A2020C94770037
:100040000C9477000C9477000C94B9020C94770010
:100050000C9477000C9477000C9477000C94770044
:100060000C9477000C9477000C9477000C94770034
:100070000C9477000C9477000C9477000C94770024
:100080000C9477000C9477000C9477000C94770014
:100090000C9477000C9477000C9477000C94770004
:1000A0000C9477000C9477000C9477000C947700F4
:1000B0000C94770011241FBECFEFD8E0DEBFCDBF78
:1000C00011E0A0E0B1E0E4E2FFE002C005900D9293
:1000D000A237B107D9F722E0A2E7B1E001C01D9233
:1000E000A632B207E1F70E943E030C9490070C94ED
:1000F000000088E48093D8000895ECEDF0E01082D1
:1001000094EA908390819923ECF79091D900987F9D
:10011000983061F48093DB0084E88093DC00ECEDA0
:10012000F0E080818823ECF780E0089581E0089575
:100130008093DB0084E88093DC00ECEDF0E08081CC
:100140008823ECF79091D900987F81E0983209F4E8
:1001500080E0089584EC8093DC00ECEDF0E0808199
:100160008823ECF78091DB00089584E88093DC001D
:10017000ECEDF0E080818823ECF78091DB000895BE
:10018000CF92DF92FF920F931F93CF93DF936B0178
:100190008A010E947D00F82E811112C001151105FF
:1001A00059F0E6010C0D1D1D89910E9498008111E6
:1001B0000AC00C171D07C1F784E98093DC0005C055
:1001C000FF24F39402C0FF24F3948F2DDF91CF918D
:1001D0001F910F91FF90DF90CF900895AF92BF9243
:1001E000DF92EF92FF920F931F93CF93DF935B0108
:1001F0007A0181600E947D00D82E811118C081E0B3
:10020000E81AF10851F0E50185010E0D1F1D0E944D
:10021000AA0089930C171D07D1F7E501CE0DDF1D4C
:100220000E94B500888384E98093DC0002C0DD244D
:10023000D3948D2DDF91CF911F910F91FF90EF906F
:10024000DF90BF90AF90089584B5826084BD89EF40
:1002500087BD82E080936E0083E085BD0895909312
:10026000C5008093C40088E18093C1008EE0809334
:10027000C20008951092CC011092CE011092CD01CF
:10028000E1ECF0E08081806880830895CF92DF9276
:10029000EF92FF921F93CF93DF936B017C010E943B
:1002A000CC05CAE0D0E0CB01BE010E94FD06962F2E
:1002B000182F60E071E080E3890F0E94B30360E0D3
:1002C00071E080E3810F0E94B30360E071E08EE291
:1002D0000E94B30320E030E040E251E4C701B601E0
:1002E0000E9490060E94CC05CB01BE010E94FD0633
:1002F00060E071E0805D0E94B30320E030E048ECF4
:1003000052E4C701B6010E9490060E94CC05CB01C1
:10031000BE010E94FD0660E071E0805D0E94B303B3
:10032000DF91CF911F91FF90EF90DF90CF900895D4
:10033000CF93DF93C0E0D0E008C0AC0FBD1F60E0FA
:1003400071E08C910E94B3032196A0911901B091A4
:100350001A01FD0101900020E9F73197EA1BFB0B20
:10036000CE17DF0750F31F9924C06091740170917C
:10037000750180917601909177010E944601C0E05D
:10038000D0E008C0AC0FBD1F60E071E08C910E940E
:10039000B3032196A0911501B0911601FD010190C2
:1003A0000020E9F73197EA1BFB0BCE17DF0750F36C
:1003B0003CC06091740170917501809176019091BB
:1003C00077010E94D30570E080E090E00E9404066F
:1003D00020E030E040E151E40E94900620E030E06F
:1003E00040EA50E40E945A0520E030E040E052E448
:1003F0000E94EE040E944601C0E0D0E008C0AC0FAD
:10040000BD1F60E071E08C910E94B3032196A09122
:100410001701B0911801FD0101900020E9F7319713
:10042000EA1BFB0BCE17DF0750F3DF91CF91089546
:10043000CF93DF93C0E0D0E008C0AC0FBD1F60E0F9
:1004400071E08C910E94B3032196A0911301B091A9
:100450001401FD0101900020E9F73197EA1BFB0B25
:10046000CE17DF0750F3DF91CF910895E09111018E
:10047000F0911201DF010D900020E9F71197BD0105
:100480006E1B7F0BCB0120E030E00FC0D901A053E1
:10049000BE4F5C914191541731F081E0809373011C
:1004A0008FEF9FEF08952F5F3F4F2817390771F7A0
:1004B00080359105C4F180E090E00895FC01E0539F
:1004C000FE4F4081403330F1FC01E053FE4F40814C
:1004D0004A3318F01FC020E030E0A901440F551F37
:1004E000220F331F220F331F220F331F240F351FFC
:1004F000FC01E053FE4F408150E040535109240F6E
:10050000351F019680359105C9F6822F932F0895E6
:1005100020E030E0FC01E053FE4F808181110FC0EC
:10052000822F932F0895FB01E053FE4F208120334B
:1005300078F320812A3378F220E030E0EBCF8FEFA0
:100540009FEF08951F920F920FB60F9211248F9371
:100550009F93809178019091790101969093790110
:10056000809378019F918F910F900FBE0F901F90F5
:1005700018951F920F920FB60F9211242F933F934D
:100580004F935F936F937F938F939F93AF93BF939B
:10059000EF93FF93E6ECF0E0808180838D3009F4E7
:1005A00048C0882309F445C08830B1F48091CD015A
:1005B0009091CE01009729F001979093CE018093FE
:1005C000CD0160E071E080E20E94B30360E071E081
:1005D00088E00E94B30341C08F37A1F4E091CD01C0
:1005E000F091CE01E053FE4F108281E08093CC0168
:1005F00080930E0180937201E1ECF0E080818058DD
:1006000080832BC02091CD013091CE01F901E053C0
:10061000FE4F80832F3431053CF42F5F3F4F3093E2
:10062000CE012093CD0119C01092CE011092CD01C0
:1006300014C060E071E08AE00E94B303E091CD0154
:10064000F091CE01E053FE4F108281E08093CC0107
:10065000E1ECF0E0808180588083FF91EF91BF91C1
:10066000AF919F918F917F916F915F914F913F914A
:100670002F910F900FBE0F901F90189527980E94F2
:10068000790087E690E00E942F010E94240178946F
:100690000E943A01C8EED3E080910E01882309F44C
:1006A00045C08091CC01882309F454C00E943602D1
:1006B0009093100180930F0180910F019091100190
:1006C000019659F480917201811102C00E941802B2
:1006D0000E943A0110927201DFCF10920E0126C0E3
:1006E000109279011092780148E050E060E070E0EB
:1006F00080E90E94C00048E050E06FEC71E080E9C2
:100700000E94EE006091CF0170E080E090E00E94D6
:100710000206609374017093750180937601909343
:1007200077010E9498010E943A01B6CF40910F01D3
:100730005091100180917801909179014C9F900126
:100740004D9F300D5C9F300D1124821793070CF4E0
:10075000A3CFC6CF80910F019091100180917801B5
:100760009091790199CFCF93C82F873069F4209168
:1007700024023091250247E050E061E070E08AE613
:1007800091E00E9425070CC08A3019F48DE00E9488
:10079000B303E0ECF0E0808185FFFDCFC093C6009D
:1007A00080E090E0CF9108956F927F928F929F9218
:1007B000AF92BF92CF92DF92EF92FF920F931F936F
:1007C000CF93DF932091CA013091CB01232B09F005
:1007D000DAC08C010F2EFAE78F2EF1E09F2EF02D5C
:1007E000C0ECD0E00F2EF6ECCF2ED12CF02D540122
:1007F0000F2EF9E76F2EF1E07F2EF02D88818823F0
:10080000ECF7888184FDD2C0888183FDD2C0F601D7
:1008100080818D3011F08A3069F48AE0F4018083A0
:10082000B8010E94B3038AE791E09093CB018093D3
:10083000CA01A9C0893039F090EE980F9F3520F099
:10084000803AB8F001C080E2F9EC8F16F1E09F0623
:1008500029F4B80187E00E94B303D0CF74019FEF61
:10086000E91AF90AF4018083B8010E94B303470131
:10087000C5CF8231D1F130F4833009F49DC0883086
:10088000E9F0BCCF873129F08F37C1F0853179F09D
:10089000B5CFFAE78F16F1E09F0609F008F4AECF66
:1008A000F40131978081803209F052C0A7CF8AE7E6
:1008B000881681E0980609F098F5A0CF9AE7891686
:1008C00091E0990609F008F499CFB80188E00E94F8
:1008D000B303B80180E20E94B303B80188E00E942C
:1008E000B303E1E08E1A910889CFB8018DE00E9430
:1008F000B303FAE78F16F1E09F0609F008F47ECF04
:100900000F2EFAE7EF2EF1E0FF2EF02DB801F701E0
:1009100081917F010E94B3038E149F04B9F76ECFBB
:10092000B80188E00E94B303B80180E20E94B303DB
:10093000B80188E00E94B303F1E08F1A91088AE7BA
:10094000881681E0980661F7F30131964F0156CF82
:100950007401F1E0EF1AF108B80188E00E94B303D6
:10096000B80180E20E94B303B80188E00E94B3039B
:100970004701EA14FB0409F441CFF70182917F019A
:10098000803251F73BCFE091CA01F091CB01CF010A
:1009900001969093CB018093CA0180818A3021F423
:1009A0001092CB011092CA0190E008C08EEF9FEF29
:1009B00005C08FEF9FEF02C08FEF9FEFDF91CF91C8
:1009C0001F910F91FF90EF90DF90CF90BF90AF906D
:1009D0009F908F907F906F9008955058BB27AA27C3
:1009E0000E9405050C9456060E94480638F00E94A5
:1009F0004F0620F039F49F3F19F426F40C94450675
:100A00000EF4E095E7FB0C943F06E92F0E94670681
:100A100058F3BA17620773078407950720F079F433
:100A2000A6F50C9489060EF4E0950B2EBA2FA02D96
:100A30000B01B90190010C01CA01A0011124FF278B
:100A4000591B99F0593F50F4503E68F11A16F04086
:100A5000A22F232F342F4427585FF3CF4695379585
:100A60002795A795F0405395C9F77EF41F16BA0B4A
:100A7000620B730B840BBAF09150A1F0FF0FBB1FF8
:100A8000661F771F881FC2F70EC0BA0F621F731F41
:100A9000841F48F4879577956795B795F7959E3F9E
:100AA00008F0B0CF9395880F08F09927EE0F97952F
:100AB000879508950E946E050C9456060E944F0675
:100AC00058F00E94480640F029F45F3F29F00C944A
:100AD0003F0651110C948A060C9445060E94670645
:100AE00068F39923B1F3552391F3951B550BBB275D
:100AF000AA2762177307840738F09F5F5F4F220FA2
:100B0000331F441FAA1FA9F335D00E2E3AF0E0E898
:100B100032D091505040E695001CCAF72BD0FE2FE2
:100B200029D0660F771F881FBB1F26173707480776
:100B3000AB07B0E809F0BB0B802DBF01FF2793582E
:100B40005F4F3AF09E3F510578F00C943F060C94AD
:100B50008A065F3FE4F3983ED4F3869577956795D0
:100B6000B795F7959F5FC9F7880F911D9695879563
:100B700097F90895E1E0660F771F881FBB1F621782
:100B800073078407BA0720F0621B730B840BBA0B40
:100B9000EE1F88F7E09508950E94D3056894B1117F
:100BA0000C948A0608950E946F0688F09F5798F06B
:100BB000B92F9927B751B0F0E1F0660F771F881F62
:100BC000991F1AF0BA95C9F714C0B13091F00E947C
:100BD0008906B1E008950C948906672F782F88273D
:100BE000B85F39F0B93FCCF3869577956795B395A3
:100BF000D9F73EF490958095709561957F4F8F4F12
:100C00009F4F0895E89409C097FB3EF49095809516
:100C1000709561957F4F8F4F9F4F9923A9F0F92FC2
:100C200096E9BB279395F695879577956795B79540
:100C3000F111F8CFFAF4BB0F11F460FF1BC06F5F26
:100C40007F4F8F4F9F4F16C0882311F096E911C038
:100C5000772321F09EE8872F762F05C0662371F059
:100C600096E8862F70E060E02AF09A95660F771F6D
:100C7000881FDAF7880F9695879597F9089597F961
:100C80009F6780E870E060E008959FEF80EC089532
:100C900000240A941616170618060906089500245B
:100CA0000A9412161306140605060895092E0394D5
:100CB000000C11F4882352F0BB0F40F4BF2B11F449
:100CC00060FF04C06F5F7F4F8F4F9F4F089557FDA8
:100CD0009058440F551F59F05F3F71F04795880FAA
:100CE00097FB991F61F09F3F79F087950895121641
:100CF00013061406551FF2CF4695F1DF08C01616ED
:100D000017061806991FF1CF86957105610508949D
:100D10000895E894BB2766277727CB0197F90895B4
:100D20000E94A3060C9456060E94480638F00E94C2
:100D30004F0620F0952311F00C943F060C944506C5
:100D400011240C948A060E94670670F3959FC1F3E4
:100D5000950F50E0551F629FF001729FBB27F00D69
:100D6000B11D639FAA27F00DB11DAA1F649F6627BE
:100D7000B00DA11D661F829F2227B00DA11D621F0D
:100D8000739FB00DA11D621F839FA00D611D221FC7
:100D9000749F3327A00D611D231F849F600D211DAB
:100DA000822F762F6A2F11249F5750409AF0F1F02E
:100DB00088234AF0EE0FFF1FBB1F661F771F881F97
:100DC00091505040A9F79E3F510580F00C943F068A
:100DD0000C948A065F3FE4F3983ED4F386957795AA
:100DE0006795B795F795E7959F5FC1F7FE2B880F3D
:100DF000911D9695879597F9089597FB072E16F400
:100E0000009407D077FD09D00E94110707FC05D098
:100E10003EF4909581959F4F0895709561957F4F11
:100E20000895AA1BBB1B51E107C0AA1FBB1FA61731
:100E3000B70710F0A61BB70B881F991F5A95A9F783
:100E400080959095BC01CD010895A0E0B0E0EBE263
:100E5000F7E00C945F075B014A017901D901139611
:100E60002C9121FF1DC0C0E0D0E0C815D905D9F0F4
:100E70008C016C01CA0CDB1CC8010C151D0571F03E
:100E80000F5F1F4FD7011896ED91FC911997B7018D
:100E9000DC018C910995892B79F305C02196E5CF6A
:100EA00080E090E001C0CE01CDB7DEB7ECE00C945D
:100EB0007B072F923F924F925F926F927F928F9219
:100EC0009F92AF92BF92CF92DF92EF92FF920F93D9
:100ED0001F93CF93DF93CDB7DEB7CA1BDB0B0FB6E3
:100EE000F894DEBF0FBECDBF09942A8839884888A0
:100EF0005F846E847D848C849B84AA84B984C88436
:100F0000DF80EE80FD800C811B81AA81B981CE0F2C
:100F1000D11D0FB6F894DEBF0FBECDBFED01089511
:040F2000F894FFCF73
:100F24000000000300000000B303D403000001022A
:100F3400001B0128013B0147015301756172745F75
:100F44007570646174652000696E76616C696420F3
:100F5400636D642F706172616D0A0020646567724D
:100F640065657320430A00206465677265657320B4
:100F7400460A0043757272656E742074656D7065FF
:100F8400726174757265203D20002A72696E672A49
:020F94000A0051
:00000001FF
