:100000000C945A000C9464000C9464000C946400EA
:100010000C9464000C9464000C9464000C946400D0
:100020000C9464000C9464000C9464000C946400C0
:100030000C9464000C9464000C9464000C946400B0
:100040000C9464000C9464000C9464000C946400A0
:100050000C9464000C9464000C9464000C94640090
:100060000C9464000C9464000C9464000C94640080
:100070000C9464000C9464000C9464000C94640070
:100080000C9464000C9464000C9464000C94640060
:100090000C9464000C9464000C9464000C94640050
:1000A0000C9464000C9464000C9464000C94640040
:1000B0000C94640011241FBECFEFD8E0DEBFCDBF8B
:1000C0000E9477000C9413010C9400001816190676
:1000D0006CF420E030E0EFE9FFE03197F1F700C089
:1000E00000002F5F3F4F82179307A9F708958FEF06
:1000F0008AB92798219820E030E080E090E0CC2475
:10010000C394D12C03E010E06894552451F8C1E069
:10011000D0E00F2EF4EFEF2EFF24F394F02D612C9E
:10012000712C01C0CE01EFE3FCE93197F1F700C07B
:1001300000001F9905C01999F5CF9E01CE01F3CF9C
:10014000199903C023B19E01EECF232BA1F0892B77
:1001500061F0F7E05F16B9F05520E1F0C114D10469
:1001600011F053941AC05A9418C004301105ACF021
:100170000150110912C0892B81F00A3011056CF46D
:100180000F5F1F4F0AC0C62CD72C0F2EF6E05F2E34
:10019000F02D03C06E01552453948BB15E01052CE4
:1001A00002C0AA0CBB1C0A94E2F78A298BB9C701CA
:1001B000B8010E94EB004B01CB010E9466008BB19D
:1001C000A094A822ABB8C4010E946600262D372D4A
:1001D000862D972DA8CF97FB072E16F4009407D0F5
:1001E00077FD09D00E94FF0007FC05D03EF49095F2
:1001F00081959F4F0895709561957F4F0895AA1B33
:10020000BB1B51E107C0AA1FBB1FA617B70710F001
:10021000A61BB70B881F991F5A95A9F78095909533
:0A022000BC01CD010895F894FFCF52
:00000001FF
