:100000000C945A000C9477000C9477000C947700B1
:100010000C9477000C9477000C9477000C94770084
:100020000C9477000C9477000C9477000C94770074
:100030000C9477000C9477000C9481030C94770057
:100040000C9477000C9477000C9477000C94770054
:100050000C9477000C9485020C9477000C94770034
:100060000C9477000C9477000C9477000C94770034
:100070000C9477000C9477000C9477000C94770024
:100080000C9477000C9477000C9477000C94770014
:100090000C9477000C9477000C9477000C94770004
:1000A0000C9477000C9477000C9477000C947700F4
:1000B0000C94770011241FBECFEFD8E0DEBFCDBF78
:1000C00011E0A0E0B1E0E0E9FEE002C005900D9291
:1000D000AA37B107D9F721E0AAE7B1E001C01D9224
:1000E000AD3EB207E1F70E94CE030C9446070C9494
:1000F0000000EAE7F0E080818E68808310927C0047
:100100000895EAE7F0E08081806480830895909309
:10011000C5008093C40088E18093C1008EE0809385
:10012000C200089584B5826084BD89EF87BD82E0F6
:1001300080936E0083E085BD0895CF92DF92EF92A9
:10014000FF92CF93DF936B017C010E948205862F83
:1001500060E171E0805D0E94DB0360E171E08EE2AE
:100160000E94DB0320E030E040E251E4C701B60129
:100170000E9446060E948205CAE0D0E0CB01BE0183
:100180000E94B30660E171E0805D0E94DB0320E025
:1001900030E048EC52E4C701B6010E9446060E94D6
:1001A0008205CB01BE010E94B30660E171E0805D73
:1001B0000E94DB03DF91CF91FF90EF90DF90CF9013
:1001C0000895CF93DF93EC018A30910554F06AE0F3
:1001D00070E00E94B306862F60E171E0805D0E94AE
:1001E000DB03CE016AE070E00E94B30660E171E0DB
:1001F000805D0E94DB0360E171E08AE00E94DB0326
:10020000DF91CF910895CF93DF93C0E0D0E008C095
:10021000AC0FBD1F60E171E08C910E94DB03219661
:10022000A0910E01B0910F01FD0101900020E9F7AE
:100230003197EA1BFB0BCE17DF0750F3C0E0D0E08D
:1002400008C0AC0FBD1F60E171E08C910E94DB0320
:100250002196A0910C01B0910D01FD0101900020AB
:10026000E9F73197EA1BFB0BCE17DF0750F36091DC
:1002700091017091920180919301909194010E945B
:100280009D00C0E0D0E008C0AC0FBD1F60E171E090
:100290008C910E94DB032196A0910001B091010195
:1002A000FD0101900020E9F73197EA1BFB0BCE1707
:1002B000DF0750F3C0E0D0E008C0AC0FBD1F60E125
:1002C00071E08C910E94DB032196A0910A01B0910C
:1002D0000B01FD0101900020E9F73197EA1BFB0BB0
:1002E000CE17DF0750F360918D0170918E018091E0
:1002F0008F01909190010E949D00C0E0D0E008C065
:10030000AC0FBD1F60E171E08C910E94DB03219670
:10031000A0910001B0910101FD0101900020E9F7D9
:100320003197EA1BFB0BCE17DF0750F3C0E0D0E09C
:1003300008C0AC0FBD1F60E171E08C910E94DB032F
:100340002196A0910801B0910901FD0101900020C2
:10035000E9F73197EA1BFB0BCE17DF0750F36091EB
:10036000890170918A0180918B0190918C010E948A
:100370009D00C0E0D0E008C0AC0FBD1F60E171E09F
:100380008C910E94DB032196A0910001B0910101A4
:10039000FD0101900020E9F73197EA1BFB0BCE1716
:1003A000DF0750F3C0E0D0E008C0AC0FBD1F60E134
:1003B00071E08C910E94DB032196A0910601B0911F
:1003C0000701FD0101900020E9F73197EA1BFB0BC3
:1003D000CE17DF0750F360918501709186018091FF
:1003E0008701909188010E949D00C0E0D0E008C084
:1003F000AC0FBD1F60E171E08C910E94DB03219680
:10040000A0910001B0910101FD0101900020E9F7E8
:100410003197EA1BFB0BCE17DF0750F3C0E0D0E0AB
:1004200008C0AC0FBD1F60E171E08C910E94DB033E
:100430002196A0910401B0910501FD0101900020D9
:10044000E9F73197EA1BFB0BCE17DF0750F36091FA
:1004500081017091820180918301909184010E94B9
:100460009D00C0E0D0E008C0AC0FBD1F60E171E0AE
:100470008C910E94DB032196A0910001B0910101B3
:10048000FD0101900020E9F73197EA1BFB0BCE1725
:10049000DF0750F3C0E0D0E008C0AC0FBD1F60E143
:1004A00071E08C910E94DB032196A0910201B09132
:1004B0000301FD0101900020E9F73197EA1BFB0BD6
:1004C000CE17DF0750F380917F01909180010E9449
:1004D000E100C0E0D0E008C0AC0FBD1F60E171E0FA
:1004E0008C910E94DB032196A0910E01B0910F0127
:1004F000FD0101900020E9F73197EA1BFB0BCE17B5
:10050000DF0750F3DF91CF9108951F920F920FB63E
:100510000F9211242F933F934F935F936F937F9389
:100520008F939F93AF93BF93EF93FF9380917C0042
:10053000823009F44FC028F4882351F0813049F10A
:10054000C6C0833009F467C0843009F485C0BFC0D9
:100550006091780070917900CB01880F991F880F06
:10056000991F680F791F80E090E00E94B80520E095
:1005700030E040E85AE30E94460660939101709390
:100580009201809393019093940181E080937C0089
:100590009EC06091780070917900CB01880F991FFF
:1005A000880F991F680F791F80E090E00E94B805BE
:1005B00020E030E040E85AE30E94460660938D0157
:1005C00070938E0180938F019093900182E08093CD
:1005D0007C007DC06091780070917900CB01880F1C
:1005E000991F880F991F680F791F80E090E00E9483
:1005F000B80520E030E040E85AE30E9446066093E8
:10060000890170938A0180938B0190938C0183E020
:1006100080937C005CC06091780070917900CB0180
:10062000880F991F880F991F680F791F80E090E04D
:100630000E94B80520E030E040E85AE30E944606F8
:100640006093850170938601809387019093880160
:1006500084E080937C003BC06091780070917900C9
:10066000CB01880F991F880F991F680F791F80E0B1
:1006700090E00E94B80520E030E040E85AE30E9494
:100680004606609381017093820180938301909369
:100690008401609181017091820180918301909128
:1006A00084019B01AC010E9416050E948205709393
:1006B000800160937F0180917F0190918001880F7C
:1006C000880F8BB910927C0081E080937A01809131
:1006D0007A01811103C00E94810002C010927A0148
:1006E000FF91EF91BF91AF919F918F917F916F910A
:1006F0005F914F913F912F910F900FBE0F901F90E0
:1007000018951F920F920FB60F9211242F933F93BB
:100710004F935F936F937F938F939F93AF93BF9309
:10072000EF93FF9380917D0190917E0101969093CC
:100730007E0180937D0180917B0190917C010196E7
:1007400090937C0180937B0180917D0190917E014B
:100750008F3C974031F410927E0110927D010E94EF
:10076000030180917B0190917C01879731F4109275
:100770007C0110927B010E948100FF91EF91BF915B
:10078000AF919F918F917F916F915F914F913F9129
:100790002F910F900FBE0F901F9018958AB18C6308
:1007A0008AB90E94920087E690E00E9487000E942A
:1007B00079007894FFCFCF93C82F873069F42091C8
:1007C000EB013091EC0147E050E061E070E081E73F
:1007D00091E00E94DB060CC08A3019F48DE00E9483
:1007E000DB03E0ECF0E0808185FFFDCFC093C60025
:1007F00080E090E0CF9108956F927F928F929F92C8
:10080000AF92BF92CF92DF92EF92FF920F931F931E
:10081000CF93DF932091E5013091E601232B09F07E
:10082000DAC08C010F2EF5E98F2EF1E09F2EF02D0E
:10083000C0ECD0E00F2EF6ECCF2ED12CF02D5401D1
:100840000F2EF4E96F2EF1E07F2EF02D88818823A2
:10085000ECF7888184FDD2C0888183FDD2C0F60187
:1008600080818D3011F08A3069F48AE0F401808350
:10087000B8010E94DB0385E991E09093E601809343
:10088000E501A9C0893039F090EE980F9F3520F02E
:10089000803AB8F001C080E2F4EE8F16F1E09F06D6
:1008A00029F4B80187E00E94DB03D0CF74019FEFE9
:1008B000E91AF90AF4018083B8010E94DB034701B9
:1008C000C5CF8231D1F130F4833009F49DC0883036
:1008D000E9F0BCCF873129F08F37C1F0853179F04D
:1008E000B5CFF5E98F16F1E09F0609F008F4AECF19
:1008F000F40131978081803209F052C0A7CF85E999
:10090000881681E0980609F098F5A0CF95E9891638
:1009100091E0990609F008F499CFB80188E00E94A7
:10092000DB03B80180E20E94DB03B80188E00E948B
:10093000DB03E1E08E1A910889CFB8018DE00E94B7
:10094000DB03F5E98F16F1E09F0609F008F47ECF8E
:100950000F2EF5E9EF2EF1E0FF2EF02DB801F70193
:1009600081917F010E94DB038E149F04B9F76ECF43
:10097000B80188E00E94DB03B80180E20E94DB033B
:10098000B80188E00E94DB03F1E08F1A910885E945
:10099000881681E0980661F7F30131964F0156CF32
:1009A0007401F1E0EF1AF108B80188E00E94DB035E
:1009B000B80180E20E94DB03B80188E00E94DB03FB
:1009C0004701EA14FB0409F441CFF70182917F014A
:1009D000803251F73BCFE091E501F091E601CF0184
:1009E00001969093E6018093E50180818A3021F49D
:1009F0001092E6011092E50190E008C08EEF9FEFA3
:100A000005C08FEF9FEF02C08FEF9FEFDF91CF9177
:100A10001F910F91FF90EF90DF90CF90BF90AF901C
:100A20009F908F907F906F9008955058BB27AA2772
:100A30000E942D050C940C060E94FE0538F00E94C1
:100A4000050620F039F49F3F19F426F40C94FB05B9
:100A50000EF4E095E7FB0C94F505E92F0E941D06C6
:100A600058F3BA17620773078407950720F079F4E3
:100A7000A6F50C943F060EF4E0950B2EBA2FA02D90
:100A80000B01B90190010C01CA01A0011124FF273B
:100A9000591B99F0593F50F4503E68F11A16F04036
:100AA000A22F232F342F4427585FF3CF4695379535
:100AB0002795A795F0405395C9F77EF41F16BA0BFA
:100AC000620B730B840BBAF09150A1F0FF0FBB1FA8
:100AD000661F771F881FC2F70EC0BA0F621F731FF1
:100AE000841F48F4879577956795B795F7959E3F4E
:100AF00008F0B0CF9395880F08F09927EE0F9795DF
:100B0000879508950E9489056894B1110C94400658
:100B100008950E94250688F09F5798F0B92F9927CD
:100B2000B751B0F0E1F0660F771F881F991F1AF0D8
:100B3000BA95C9F714C0B13091F00E943F06B1E0F8
:100B400008950C943F06672F782F8827B85F39F0F7
:100B5000B93FCCF3869577956795B395D9F73EF471
:100B600090958095709561957F4F8F4F9F4F089519
:100B7000E89409C097FB3EF4909580957095619537
:100B80007F4F8F4F9F4F9923A9F0F92F96E9BB27ED
:100B90009395F695879577956795B795F111F8CF69
:100BA000FAF4BB0F11F460FF1BC06F5F7F4F8F4FD4
:100BB0009F4F16C0882311F096E911C0772321F0CA
:100BC0009EE8872F762F05C0662371F096E8862F62
:100BD00070E060E02AF09A95660F771F881FDAF7B9
:100BE000880F9695879597F9089597F99F6780E8FC
:100BF00070E060E008959FEF80EC089500240A946F
:100C00001616170618060906089500240A941216E7
:100C10001306140605060895092E0394000C11F41A
:100C2000882352F0BB0F40F4BF2B11F460FF04C0C7
:100C30006F5F7F4F8F4F9F4F089557FD9058440F20
:100C4000551F59F05F3F71F04795880F97FB991F2B
:100C500061F09F3F79F087950895121613061406E8
:100C6000551FF2CF4695F1DF08C016161706180675
:100C7000991FF1CF86957105610508940895E89450
:100C8000BB2766277727CB0197F908950E9459065D
:100C90000C940C060E94FE0538F00E94050620F018
:100CA000952311F00C94F5050C94FB0511240C947C
:100CB00040060E941D0670F3959FC1F3950F50E00A
:100CC000551F629FF001729FBB27F00DB11D639FFE
:100CD000AA27F00DB11DAA1F649F6627B00DA11DA4
:100CE000661F829F2227B00DA11D621F739FB00D4A
:100CF000A11D621F839FA00D611D221F749F3327BA
:100D0000A00D611D231F849F600D211D822F762F52
:100D10006A2F11249F5750409AF0F1F088234AF02F
:100D2000EE0FFF1FBB1F661F771F881F915050409B
:100D3000A9F79E3F510580F00C94F5050C944006F0
:100D40005F3FE4F3983ED4F3869577956795B79522
:100D5000F795E7959F5FC1F7FE2B880F911D96953C
:100D6000879597F9089597FB072E16F4009407D0FE
:100D700077FD09D00E94C70607FC05D03EF4909588
:100D800081959F4F0895709561957F4F0895AA1B97
:100D9000BB1B51E107C0AA1FBB1FA617B70710F066
:100DA000A61BB70B881F991F5A95A9F78095909598
:100DB000BC01CD010895A0E0B0E0E1EEF6E00C94B6
:100DC00015075B014A017901D90113962C9121FF86
:100DD0001DC0C0E0D0E0C815D905D9F08C016C0168
:100DE000CA0CDB1CC8010C151D0571F00F5F1F4FED
:100DF000D7011896ED91FC911997B701DC018C9100
:100E00000995892B79F305C02196E5CF80E090E024
:100E100001C0CE01CDB7DEB7ECE00C9431072F92C4
:100E20003F924F925F926F927F928F929F92AF927A
:100E3000BF92CF92DF92EF92FF920F931F93CF93C7
:100E4000DF93CDB7DEB7CA1BDB0B0FB6F894DEBF5E
:100E50000FBECDBF09942A88398848885F846E8484
:100E60007D848C849B84AA84B984C884DF80EE80CE
:100E7000FD800C811B81AA81B981CE0FD11D0FB6D7
:100E8000F894DEBF0FBECDBFED010895F894FFCFFB
:100E90001E01260132013A0142014A0152015A0162
:100EA0000000000300000000DB03FC0300002056EC
:100EB0006F6C74730A004C454420566E756D203D6E
:100EC000200041444334203D200041444333203D31
:100ED000200041444332203D200041444331203D25
:100EE000200041444330203D20002F2F2F2F2F2F53
:100EF0002F2F2F2F2F2F2F2F2F2F2F2F2F2F2F0A27
:0A0F0000002A72696E672A0A0000D9
:00000001FF
