:100000000C945A000C9477000C9477000C947700B1
:100010000C9477000C9477000C9477000C94770084
:100020000C9477000C9477000C9477000C94F400F7
:100030000C9477000C9477000C94B9000C94770022
:100040000C9477000C9477000C9477000C94770054
:100050000C9477000C9477000C9477000C94770044
:100060000C9477000C9477000C9477000C94770034
:100070000C9477000C9477000C9477000C94770024
:100080000C9477000C9477000C9477000C94770014
:100090000C9477000C9477000C9477000C94770004
:1000A0000C9477000C9477000C9477000C947700F4
:1000B0000C94770011241FBECFEFD8E0DEBFCDBF78
:1000C00011E0A0E0B1E0E2E3F4E002C005900D929F
:1000D000A630B107D9F721E0A6E0B1E001C01D923A
:1000E000AE30B207E1F70E9435010C9417020C9470
:1000F000000080910D01813051F018F08230A9F09C
:100100000895199917C081E080930D0108951999F8
:1001100007C082E080930D0181E080930A01089579
:1001200010920D0110920A010895199B03C081E0FD
:1001300080930D01089580910B0190910C01892B02
:1001400031F01BB810920C0110920B0108954BB1C5
:1001500021E030E0C9010090020102C0880F991F20
:100160000A94E2F7842B8BB930930C0120930B0196
:1001700008951F920F920FB60F9211242F933F9361
:100180004F935F936F937F938F939F93AF93BF939F
:10019000EF93FF93809103019091040118161906C3
:1001A00054F480910301909104010197909304010C
:1001B0008093030108C00E9479008AE090E0909348
:1001C000040180930301FF91EF91BF91AF919F9143
:1001D0008F917F916F915F914F913F912F910F90F0
:1001E0000FBE0F901F9018951F920F920FB60F928F
:1001F00011242F933F934F935F936F937F938F932C
:100200009F93AF93BF93EF93FF930E949B00FF9147
:10021000EF91BF91AF919F918F917F916F915F917E
:100220004F913F912F910F900FBE0F901F901895F7
:10023000E1E8F0E080818860808380E691E590933A
:1002400089008093880082E080936F0080818460C1
:100250008083089584B5826084BD89EF87BD82E084
:1002600080936E0083E085BD08958FEF8AB927984B
:1002700021980E942A010E9418017894BB24B3940B
:100280006894AA24A1F8C1E0D0E00F2EF4E2CF2EAA
:10029000F4EFDF2EE12CF12CF02D08E810E01F998F
:1002A0000EC080910D01823009F071C0D09307011A
:1002B000C0930601D0930901C093080155C01F994E
:1002C00005C0D0930901C09308014EC080910D0173
:1002D000823029F4D0930701C093060145C0809174
:1002E000080190910901892B09F459C080910601F8
:1002F00090910701892B09F44DC080910201833050
:1003000029F410920001A092020112C0811105C0CF
:10031000B0920001B09202010BC0909100019923AC
:1003200021F08F5F8093020103C08150809302010E
:100330001092090110920801109207011092060113
:1003400013C080910101843018F081508093010125
:10035000109207011092060107C08F5F8093010180
:1003600010920901109208012091010130E0220F42
:10037000331F032E000C440B550BC701B6010E941E
:10038000D60121503109F8013183208388CF1F9B8A
:1003900098CFA5CF809101018A30F8F2E1CF80910A
:1003A000060190910701892B61F6DECF052E97FBA0
:1003B0001EF400940E94ED0157FD07D00E94F50144
:1003C00007FC03D04EF40C94ED0150954095309508
:1003D00021953F4F4F4F5F4F0895909580957095B1
:1003E00061957F4F8F4F9F4F0895A1E21A2EAA1B50
:1003F000BB1BFD010DC0AA1FBB1FEE1FFF1FA217D5
:10040000B307E407F50720F0A21BB30BE40BF50BD1
:10041000661F771F881F991F1A9469F7609570955A
:10042000809590959B01AC01BD01CF010895F89492
:02043000FFCFFC
:060432000103020A0000B4
:00000001FF
