:100000000C945A000C9477000C9477000C947700B1
:100010000C9477000C9477000C9477000C94770084
:100020000C9477000C9477000C9477000C94770074
:100030000C9477000C9477000C948D020C9477004C
:100040000C9477000C9477000C9477000C94770054
:100050000C9477000C94E0020C9477000C947700D9
:100060000C9477000C9477000C9477000C94770034
:100070000C9477000C9477000C9477000C94770024
:100080000C9477000C9477000C9477000C94770014
:100090000C9477000C9477000C9477000C94770004
:1000A0000C94A4020C9477000C9477000C947700C5
:1000B0000C94770011241FBECFEFD8E0DEBFCDBF78
:1000C00011E0A0E0B1E0E0E8FEE002C005900D9292
:1000D000A034B107D9F721E0A0E4B1E001C01D923E
:1000E000A53AB207E1F70E940E030C943E070C9468
:1000F000000088E48093D8000895ECEDF0E01082D1
:1001000094EA908390819923ECF79091D900987F9D
:10011000983061F48093DB0084E88093DC00ECEDA0
:10012000F0E080818823ECF780E0089581E0089575
:100130008093DB0084E88093DC00ECEDF0E08081CC
:100140008823ECF79091D900987F81E0983209F4E8
:1001500080E0089584EC8093DC00ECEDF0E0808199
:100160008823ECF78091DB00089584E88093DC001D
:10017000ECEDF0E080818823ECF78091DB000895BE
:10018000CF92DF92FF920F931F93CF93DF936B0178
:100190008A010E947D00F82E811112C001151105FF
:1001A00059F0E6010C0D1D1D89910E9498008111E6
:1001B0000AC00C171D07C1F784E98093DC0005C055
:1001C000FF24F39402C0FF24F3948F2DDF91CF918D
:1001D0001F910F91FF90DF90CF900895AF92BF9243
:1001E000DF92EF92FF920F931F93CF93DF935B0108
:1001F0007A0181600E947D00D82E811118C081E0B3
:10020000E81AF10851F0E50185010E0D1F1D0E944D
:10021000AA0089930C171D07D1F7E501CE0DDF1D4C
:100220000E94B500888384E98093DC0002C0DD244D
:10023000D3948D2DDF91CF911F910F91FF90EF906F
:10024000DF90BF90AF90089584B5826084BD89EF40
:1002500087BD82E080936E0083E085BD0895909312
:10026000C5008093C40088E18093C1008EE0809334
:10027000C2000895EAE7F0E080818E68808387E01D
:1002800080937C000895EAE7F0E0808180648083B9
:1002900008956091400170914101072E000C880B78
:1002A000990B0E94890520E030E040EA50E40E946A
:1002B0001A0620E030E040E85AE30E941A062DECCE
:1002C0003CEC4CEC5EE30E94720427E73EEB4FE906
:1002D0005CE30E94DF0460934201709343018093CA
:1002E0004401909345010895CF92DF92EF92FF92DF
:1002F0000F931F93CF93DF936B017C0120E030E0DD
:1003000046EC52E40E94150618167CF4C701B601AB
:100310000E945105CB0164E670E00E94AB06862F77
:1003200060E071E0805D0E943803C701B6010E9461
:1003300051058B01CB0164E670E00E94AB06CAE078
:10034000D0E0BE010E94AB06862F60E071E0805DC8
:100350000E943803C801BE010E94AB0660E071E054
:10036000805D0E94380360E071E08EE20E943803F5
:1003700020E030E040E251E4C701B6010E941A06D5
:100380000E945105CB01BE010E94AB0660E071E006
:10039000805D0E94380320E030E048EC52E4C70161
:1003A000B6010E941A060E945105CB01BE010E94AF
:1003B000AB0660E071E0805D0E943803DF91CF9171
:1003C0001F910F91FF90EF90DF90CF900895CF9302
:1003D000DF93C0E0D0E008C0AC0FBD1F60E071E06B
:1003E0008C910E9438032196A0911201B0911301C3
:1003F000FD0101900020E9F73197EA1BFB0BCE17B6
:10040000DF0750F3609146017091470180914801E8
:100410009091490120E030E040E151E40E941A0649
:1004200020E030E040EA50E40E94DF0420E030E0C9
:1004300040E052E40E9473040E947401C0E0D0E0E6
:1004400008C0AC0FBD1F60E071E08C910E943803C2
:100450002196A0910E01B0910F01FD0101900020A5
:10046000E9F73197EA1BFB0BCE17DF0750F3C0E02B
:10047000D0E008C0AC0FBD1F60E071E08C910E941D
:1004800038032196A0911001B0911101FD01019056
:100490000020E9F73197EA1BFB0BCE17DF0750F37B
:1004A0006091420170914301809144019091450116
:1004B00020E030E040E151E40E941A0620E030E004
:1004C00040EA50E40E94DF0420E030E040E052E4E3
:1004D0000E9473040E947401C0E0D0E008C0AC0F19
:1004E000BD1F60E071E08C910E9438032196A091BD
:1004F0000E01B0910F01FD0101900020E9F7319745
:10050000EA1BFB0BCE17DF0750F360E071E08AE0D7
:100510000E943803DF91CF9108951F920F920FB67A
:100520000F9211248F939F9380914A0190914B01D8
:10053000019690934B0180934A019F918F910F9068
:100540000FBE0F901F9018951F920F920FB60F922B
:1005500011242F933F934F935F936F937F938F93C8
:100560009F93AF93BF93EF93FF938091D9008075D2
:10057000B1F060919E0170E080E090E00E948705FC
:10058000609346017093470180934801909349011D
:10059000ECEDF0E08081806880830E944301FF9150
:1005A000EF91BF91AF919F918F917F916F915F91EB
:1005B0004F913F912F910F900FBE0F901F90189564
:1005C0001F920F920FB60F9211242F933F934F93C8
:1005D0005F936F937F938F939F93AF93BF93EF93AB
:1005E000FF938091780090917900909341018093DE
:1005F00040010E9449010E94E701FF91EF91BF91E4
:10060000AF919F918F917F916F915F914F913F91AA
:100610002F910F900FBE0F901F9018950E94790098
:1006200087E690E00E942F010E9424010E943A0177
:100630007894CCEDD0E080914A0190914B018F3CB1
:100640009740CCF310924B0110924A0148E050E0E1
:1006500060E070E080E90E94C00048E050E06EE990
:1006600071E080E90E94EE00888185628883E3CF93
:10067000CF93C82F873069F42091A3013091A40152
:1006800047E050E061E070E088E391E00E94D3062B
:100690000CC08A3019F48DE00E943803E0ECF0E0E1
:1006A000808185FFFDCFC093C60080E090E0CF91B0
:1006B00008956F927F928F929F92AF92BF92CF9246
:1006C000DF92EF92FF920F931F93CF93DF932091CE
:1006D0009C0130919D01232B09F0DAC08C010F2E73
:1006E000FCE48F2EF1E09F2EF02DC0ECD0E00F2E19
:1006F000F6ECCF2ED12CF02D54010F2EFBE46F2EF3
:10070000F1E07F2EF02D88818823ECF7888184FD2D
:10071000D2C0888183FDD2C0F60180818D3011F076
:100720008A3069F48AE0F4018083B8010E943803BA
:100730008CE491E090939D0180939C01A9C0893045
:1007400039F090EE980F9F3520F0803AB8F001C054
:1007500080E2FBE98F16F1E09F0629F4B80187E0FB
:100760000E943803D0CF74019FEFE91AF90AF4010F
:100770008083B8010E9438034701C5CF8231D1F18F
:1007800030F4833009F49DC08830E9F0BCCF873164
:1007900029F08F37C1F0853179F0B5CFFCE48F16A1
:1007A000F1E09F0609F008F4AECFF40131978081A3
:1007B000803209F052C0A7CF8CE4881681E09806F9
:1007C00009F098F5A0CF9CE4891691E0990609F00C
:1007D00008F499CFB80188E00E943803B80180E29C
:1007E0000E943803B80188E00E943803E1E08E1AC5
:1007F000910889CFB8018DE00E943803FCE48F1680
:10080000F1E09F0609F008F47ECF0F2EFCE4EF2EF6
:10081000F1E0FF2EF02DB801F70181917F010E94D8
:1008200038038E149F04B9F76ECFB80188E00E9498
:100830003803B80180E20E943803B80188E00E94C2
:100840003803F1E08F1A91088CE4881681E098064D
:1008500061F7F30131964F0156CF7401F1E0EF1AC1
:10086000F108B80188E00E943803B80180E20E94D4
:100870003803B80188E00E9438034701EA14FB04FA
:1008800009F441CFF70182917F01803251F73BCFCC
:10089000E0919C01F0919D01CF01019690939D0103
:1008A00080939C0180818A3021F410929D011092E6
:1008B0009C0190E008C08EEF9FEF05C08FEF9FEF87
:1008C00002C08FEF9FEFDF91CF911F910F91FF90AB
:1008D000EF90DF90CF90BF90AF909F908F907F90E0
:1008E0006F9008955058BB27AA270E948A040C9441
:1008F000DB050E94CD0538F00E94D40520F039F4C4
:100900009F3F19F426F40C94CA050EF4E095E7FB1A
:100910000C94C405E92F0E94EC0558F3BA1762073E
:1009200073078407950720F079F4A6F50C940E065A
:100930000EF4E0950B2EBA2FA02D0B01B9019001FA
:100940000C01CA01A0011124FF27591B99F0593F3E
:1009500050F4503E68F11A16F040A22F232F342F86
:100960004427585FF3CF469537952795A795F040D4
:100970005395C9F77EF41F16BA0B620B730B840BE9
:10098000BAF09150A1F0FF0FBB1F661F771F881FA1
:10099000C2F70EC0BA0F621F731F841F48F48795F9
:1009A00077956795B795F7959E3F08F0B0CF9395EB
:1009B000880F08F09927EE0F9795879508950E9464
:1009C000F3040C94DB050E94D40558F00E94CD0579
:1009D00040F029F45F3F29F00C94C40551110C94A8
:1009E0000F060C94CA050E94EC0568F39923B1F335
:1009F000552391F3951B550BBB27AA276217730745
:100A0000840738F09F5F5F4F220F331F441FAA1FD8
:100A1000A9F335D00E2E3AF0E0E832D09150504094
:100A2000E695001CCAF72BD0FE2F29D0660F771F42
:100A3000881FBB1F261737074807AB07B0E809F028
:100A4000BB0B802DBF01FF2793585F4F3AF09E3FAD
:100A5000510578F00C94C4050C940F065F3FE4F345
:100A6000983ED4F3869577956795B795F7959F5FF0
:100A7000C9F7880F911D9695879597F90895E1E03C
:100A8000660F771F881FBB1F621773078407BA079B
:100A900020F0621B730B840BBA0BEE1F88F7E095F6
:100AA00008950E9458056894B1110C940F0608959A
:100AB0000E94F40588F09F5798F0B92F9927B751F5
:100AC000B0F0E1F0660F771F881F991F1AF0BA95F2
:100AD000C9F714C0B13091F00E940E06B1E008953C
:100AE0000C940E06672F782F8827B85F39F0B93F2E
:100AF000CCF3869577956795B395D9F73EF49095A5
:100B00008095709561957F4F8F4F9F4F0895E89422
:100B100009C097FB3EF490958095709561957F4F45
:100B20008F4F9F4F9923A9F0F92F96E9BB279395F3
:100B3000F695879577956795B795F111F8CFFAF403
:100B4000BB0F11F460FF1BC06F5F7F4F8F4F9F4F34
:100B500016C0882311F096E911C0772321F09EE892
:100B6000872F762F05C0662371F096E8862F70E0F8
:100B700060E02AF09A95660F771F881FDAF7880FD2
:100B80009695879597F9089597F99F6780E870E0A3
:100B900060E008959FEF80EC089500240A941616F3
:100BA000170618060906089500240A94121613065B
:100BB000140605060895092E0394000C11F48823E9
:100BC00052F0BB0F40F4BF2B11F460FF04C06F5F05
:100BD0007F4F8F4F9F4F089557FD9058440F551FDB
:100BE00059F05F3F71F04795880F97FB991F61F0AF
:100BF0009F3F79F087950895121613061406551F26
:100C0000F2CF4695F1DF08C0161617061806991F91
:100C1000F1CF86957105610508940895E894BB2786
:100C200066277727CB0197F908950E94870608F475
:100C30008FEF08950E942D060C94DB050E94CD05D0
:100C400038F00E94D40520F0952311F00C94C405CF
:100C50000C94CA0511240C940F060E94EC0570F345
:100C6000959FC1F3950F50E0551F629FF001729F51
:100C7000BB27F00DB11D639FAA27F00DB11DAA1F60
:100C8000649F6627B00DA11D661F829F2227B00DAD
:100C9000A11D621F739FB00DA11D621F839FA00D38
:100CA000611D221F749F3327A00D611D231F849F88
:100CB000600D211D822F762F6A2F11249F575040DF
:100CC0009AF0F1F088234AF0EE0FFF1FBB1F661F5A
:100CD000771F881F91505040A9F79E3F510580F023
:100CE0000C94C4050C940F065F3FE4F3983ED4F3D4
:100CF000869577956795B795F795E7959F5FC1F7C7
:100D0000FE2B880F911D9695879597F90895990F59
:100D10000008550FAA0BE0E8FEEF16161706E807C5
:100D2000F907C0F012161306E407F50798F0621BE6
:100D3000730B840B950B39F40A2661F0232B242BBB
:100D4000252B21F408950A2609F4A140A6958FEFDA
:100D5000811D811D089597FB072E16F4009407D07E
:100D600077FD09D00E94BF0607FC05D03EF49095A0
:100D700081959F4F0895709561957F4F0895AA1BA7
:100D8000BB1B51E107C0AA1FBB1FA617B70710F076
:100D9000A61BB70B881F991F5A95A9F780959095A8
:100DA000BC01CD010895A0E0B0E0E9EDF6E00C94BF
:100DB0000D075B014A017901D90113962C9121FF9E
:100DC0001DC0C0E0D0E0C815D905D9F08C016C0178
:100DD000CA0CDB1CC8010C151D0571F00F5F1F4FFD
:100DE000D7011896ED91FC911997B701DC018C9110
:100DF0000995892B79F305C02196E5CF80E090E035
:100E000001C0CE01CDB7DEB7ECE00C9429072F92DC
:100E10003F924F925F926F927F928F929F92AF928A
:100E2000BF92CF92DF92EF92FF920F931F93CF93D7
:100E3000DF93CDB7DEB7CA1BDB0B0FB6F894DEBF6E
:100E40000FBECDBF09942A88398848885F846E8494
:100E50007D848C849B84AA84B984C884DF80EE80DE
:100E6000FD800C811B81AA81B981CE0FD11D0FB6E7
:100E7000F894DEBF0FBECDBFED010895F894FFCF0B
:100E800000000003000000003803590300001401B3
:100E900020012C01206465677265657320460A0095
:100EA0004144432054656D70203D20004932432069
:100EB00054656D70203D20002A72696E672A0A0011
:00000001FF
