S01B0000454345333431314C61625072616374696365382E7372656301
S11300000C945A000C946C000C946C000C946C00CE
S11300100C946C000C946C000C946C000C946C00AC
S11300200C946C000C946C000C946C000C941601F1
S11300300C94B0000C946C000C946C000C946C0048
S11300400C946C000C946C000C946C000C946C007C
S11300500C946C000C949A000C946C000C946C003E
S11300600C946C000C946C000C946C000C946C005C
S11300700C946C000C946C000C946C000C946C004C
S11300800C946C000C946C000C946C000C946C003C
S11300900C946C000C946C000C946C000C946C002C
S11300A00C946C000C946C000C946C000C946C001C
S11300B00C946C0011241FBECFEFD8E0DEBFCDBF7F
S11300C021E0A0E0B1E001C01D92A430B207E1F745
S11300D00E944F010C9487020C940000EAE7F0E0C0
S11300E08081806480830895ECE7F0E080818660FD
S11300F08083EAE7F0E080818E6880830E946E004E
S11301000895E0E8F0E0808183608083E1E8F0E036
S113011080818861808381EE94E09093890080934C
S11301208800AFE6B0E08C9186608C938081846017
S1130130808308951F920F920FB60F9211248F930C
S11301409F9380917800909179009093030180931C
S113015002019F918F910F900FBE0F901F901895E1
S11301601F920F920FB60F921124CF92DF92EF924B
S1130170FF922F933F934F935F936F937F938F934C
S11301809F93AF93BF93CF93DF93EF93FF935898CD
S113019080910201909103011816190664F560918B
S11301A0020170910301C0918800D0918900072E4B
S11301B0000C880B990B0E948E0120E030E040E88F
S11301C05AE30E94F2016B017C01BE016F5F7F4F15
S11301D080E090E00E948C019B01AC01C701B60154
S11301E00E94F2010E9456016150710970938B00C4
S11301F060938A0004C010928B0010928A00FF91D1
S1130200EF91DF91CF91BF91AF919F918F917F91AA
S11302106F915F914F913F912F91FF90EF90DF90FD
S1130220CF900F900FBE0F901F9018951F920F92B2
S11302300FB60F9211242F933F934F935F936F93B5
S11302407F938F939F93AF93BF93EF93FF93589AAA
S11302508091000190910101049739F40E946E008D
S1130260109201011092000109C080910001909147
S1130270010101969093010180930001FF91EF9198
S1130280BF91AF919F918F917F916F915F914F91AA
S11302903F912F910F900FBE0F901F901895509A79
S11302A00E9481000E9474007894FFCF0E945D0137
S11302B06894B1110C94EC0108950E94D10188F066
S11302C09F5798F0B92F9927B751B0F0E1F0660F16
S11302D0771F881F991F1AF0BA95C9F714C0B13057
S11302E091F00E94EB01B1E008950C94EB01672FAB
S11302F0782F8827B85F39F0B93FCCF38695779586
S11303006795B395D9F73EF490958095709561956E
S11303107F4F8F4F9F4F0895E89409C097FB3EF499
S113032090958095709561957F4F8F4F9F4F99233E
S1130330A9F0F92F96E9BB279395F69587957795BC
S11303406795B795F111F8CFFAF4BB0F11F460FF7C
S11303501BC06F5F7F4F8F4F9F4F16C0882311F0D4
S113036096E911C0772321F09EE8872F762F05C0E8
S1130370662371F096E8862F70E060E02AF09A9583
S1130380660F771F881FDAF7880F9695879597F978
S1130390089557FD9058440F551F59F05F3F71F071
S11303A04795880F97FB991F61F09F3F79F08795D8
S11303B00895121613061406551FF2CF4695F1DF61
S11303C008C0161617061806991FF1CF86957105F1
S11303D0610508940895E894BB2766277727CB0125
S11303E097F908950E9405020C9476020E9468020F
S11303F038F00E946F0220F0952311F00C945F02F4
S11304000C94650211240C94EC010E94C90170F350
S1130410959FC1F3950F50E0551F629FF001729FA5
S1130420BB27F00DB11D639FAA27F00DB11DAA1FB4
S1130430649F6627B00DA11D661F829F2227B00D01
S1130440A11D621F739FB00DA11D621F839FA00D8C
S1130450611D221F749F3327A00D611D231F849FDC
S1130460600D211D822F762F6A2F11249F57504033
S11304709AF0F1F088234AF0EE0FFF1FBB1F661FAE
S1130480771F881F91505040A9F79E3F510580F077
S11304900C945F020C94EC015F3FE4F3983ED4F3B8
S11304A0869577956795B795F795E7959F5FC1F71B
S11304B0FE2B880F911D9695879597F9089597F9C6
S11304C09F6780E870E060E008959FEF80EC0895F6
S11304D000240A941616170618060906089500241F
S11304E00A9412161306140605060895092E039499
S11304F0000C11F4882352F0BB0F40F4BF2B11F40D
S113050060FF04C06F5F7F4F8F4F9F4F0895F89433
S1050510FFCF17
S9030000FC
