S01B000041746D65676133323850425F54657374456E762E7372656363
S11300000C945A000C9477000C9477000C947700AD
S11300100C9477000C9477000C9477000C94770080
S11300200C9477000C9477000C9477000C94770070
S11300300C9477000C9477000C9439010C9477009D
S11300400C9477000C9477000C945E010C94770068
S11300500C9477000C9477000C9477000C94770040
S11300600C9477000C9477000C9477000C94770030
S11300700C9477000C9477000C9477000C94770020
S11300800C9477000C9477000C9477000C94770010
S11300900C9477000C9477000C9477000C94770000
S11300A00C94ED010C9477000C9477000C94770079
S11300B00C94770011241FBECFEFD8E0DEBFCDBF74
S11300C011E0A0E0B1E0EAE6F6E102C005900D928D
S11300D0AA3BB107D9F722E0AAEBB1E001C01D9217
S11300E0AF35B207E1F70E946A030C94330B0C940A
S11300F0000088E48093D8000895ECEDF0E01082CD
S113010094EA908390819923ECF79091D900987F99
S1130110983061F48093DB0084E88093DC00ECED9C
S1130120F0E080818823ECF780E0089581E0089571
S11301308093DB0084E88093DC00ECEDF0E08081C8
S11301408823ECF79091D900987F81E0983209F4E4
S113015080E0089584EC8093DC00ECEDF0E0808195
S11301608823ECF78091DB00089584E88093DC0019
S1130170ECEDF0E080818823ECF78091DB000895BA
S1130180CF92DF92FF920F931F93CF93DF936B0174
S11301908A010E947D00F82E811112C001151105FB
S11301A059F0E6010C0D1D1D89910E9498008111E2
S11301B00AC00C171D07C1F784E98093DC0005C051
S11301C0FF24F39402C0FF24F3948F2DDF91CF9189
S11301D01F910F91FF90DF90CF900895AF92BF923F
S11301E0DF92EF92FF920F931F93CF93DF935B0104
S11301F07A0181600E947D00D82E811118C081E0AF
S1130200E81AF10851F0E50185010E0D1F1D0E9449
S1130210AA0089930C171D07D1F7E501CE0DDF1D48
S11302200E94B500888384E98093DC0002C0DD2449
S1130230D3948D2DDF91CF911F910F91FF90EF906B
S1130240DF90BF90AF900895E5E2F2E087E592E099
S11302501192E817F907E1F7089510922402109219
S1130260D1011092D001E1ECF0E0808180688083BC
S113027008951F920F920FB60F9211248F939F939C
S11302808091000190910101181619063CF081E05B
S113029090E09093CD018093CC0109C0809100013E
S11302A090910101019790930101809300019F9126
S11302B08F910F900FBE0F901F9018951F920F9261
S11302C00FB60F9211242F933F934F935F936F9325
S11302D07F938F939F93AF93BF93CF93DF93EF93CA
S11302E0FF93E6ECF0E0808180838D3089F18830E3
S11302F0C1F4C9E5D2E06A817B8180E290E00E948A
S113030021086A817B8188E090E00E942108809125
S1130310D0019091D10101979093D1018093D001A4
S11303202EC02091D0013091D101F901EB5DFD4F38
S11303308083213331053CF42F5F3F4F3093D1014B
S11303402093D0011CC01092D1011092D00117C08B
S113035060915B0270915C028AE090E00E94210847
S1130360E091D001F091D101EB5DFD4F108281E06D
S113037080932402E1ECF0E0808180588083FF9137
S1130380EF91DF91CF91BF91AF919F918F917F9129
S11303906F915F914F913F912F910F900FBE0F90EE
S11303A01F90189584B5826084BD89EF87BD82E073
S11303B080936E0083E085BD0895EAE7F0E08081D4
S11303C08768808308958DE284B981E58CBD0895A2
S11303D08EBD0DB407FEFDCF08951F920F920FB688
S11303E00F9211248F929F92AF92BF92CF92DF927D
S11303F0EF92FF920F931F932F933F934F935F932B
S11304006F937F938F939F93AF93BF93CF93DF9318
S1130410EF93FF936091CA017091CB01072E000CFA
S1130420880B990B0E941F0727E73EEB4FE95CE31B
S11304300E94AB0720E030E040E050E40E9409064F
S11304406093C2017093C3018093C4019093C5016A
S11304506091C2017091C3018091C4019091C50162
S11304600E94E7067093C1016093C001C090C2016D
S1130470D090C301E090C401F090C5016091C00127
S11304807091C101072E000C880B990B0E941F0765
S11304909B01AC01C701B6010E94080620E030E0D0
S11304A048EC52E40E94AB070E94E7067093BF0138
S11304B06093BE016091C2017091C3018091C40137
S11304C09091C50120E030E040EA50E40E947506B6
S11304D020E030E040E854E40E94AB070E94E706C5
S11304E0EB01CC0FDD1FCC0FDD1F2A98289A8D2F2E
S11304F0992787FD9A9580670E94E801CE01992784
S11305000E94E8012A9A28980F2EFCE7EF2EF12C7E
S1130510F02D87E0F7018083CAE7D0E0888180640A
S1130520888308E710E0F8016081718180E090E041
S11305300E941D0720E030E040EA50E40E94AB072F
S113054020E030E040E85AE30E94AB070E94E7064F
S11305507093BD016093BC01F801608171810091C9
S1130560BC011091BD0180E090E00E941D0720E0D5
S113057030E040EA50E40E94AB0720E030E040E87D
S11305805AE30E94AB074B015C01B801110F880BC1
S1130590990B0E941F079B01AC01C501B4010E9485
S11305A0080620E030E048EC52E40E94AB070E94C9
S11305B0E7067093BB016093BA0186E0F70180837C
S11305C0888180648883EAE7F0E0808186FDFDCF3E
S11305D0C8E7D0E06881798180E090E00E941D073F
S11305E020E030E040E85AE30E94AB0720E030E02E
S11305F040EA50E40E94AB072DEC3CEC4CEC5EE38B
S11306000E94080627E73EEB4FE95CE30E9475066B
S11306100E94E7067093C9016093C80168817981DB
S1130620C091C801D091C90180E090E00E941D07EB
S113063020E030E040E85AE30E94AB0720E030E0DD
S113064040EA50E40E94AB072DEC3CEC4CEC5EE33A
S11306500E94080627E73EEB4FE95CE30E9475061B
S11306606B017C01BE01DD0F880B990B0E941F07F3
S11306709B01AC01C701B6010E94080620E030E0EE
S113068048EC52E40E94AB070E94E7067093C7014E
S11306906093C60180E88093DC00FF91EF91DF91C5
S11306A0CF91BF91AF919F918F917F916F915F9106
S11306B04F913F912F911F910F91FF90EF90DF90F9
S11306C0CF90BF90AF909F908F900F900FBE0F90E0
S11306D01F901895CF93DF93CDB7DEB72B970FB646
S11306E0F894DEBF0FBECDBF0E94D2010E94F70571
S11306F00E9479000E94DD010E94E30178940E9427
S113070024010E942D010F2EF5E26F2EF2E07F2EC0
S1130710F02DBB24B394A12C412C512C8B2C3A2CBE
S1130720242C5B820F2EFCEDCF2ED12CF02D0F2E1E
S1130730F5E29F2EF02D0F2EF8EEEF2EF3E0FF2EB4
S1130740F02D809124028130E1F4F30180818983CA
S11307501A8260E171E0CE0101960E941808892B8B
S113076071F42091CE013091CF01882D932D232B4C
S113077011F0822D9B819093CF018093CE010E9432
S11307802D018091CC019091CD010197D1F64B2D93
S11307905A2DB20180E90E94C00060915702709105
S11307A058024B2D5A2D80E90E94EE00E091570229
S11307B0F0915802808190E09093CB018093CA011C
S11307C0F60190828091CE019091CF01892BB1F5F1
S11307D0A091BA01B091BB01E091BC01F091BD01BF
S11307E06091BE017091BF014091C0015091C1015F
S11307F02091C6013091C7010091C8011091C9012F
S11308008091CA019091CB01BF93AF93FF93EF9373
S11308107F936F935F934F933F932F931F930F9304
S11308209F938F9322E131E03F932F930E9491088D
S11308300FB6F894DEBF0FBECDBF96C08091CE0137
S11308409091CF01019709F08FC06091CA01709116
S1130850CB01072E000C880B990B0E941F0720E088
S113086030E040E151E40E94AB0720E030E040EA90
S113087050E40E94750620E030E040E052E40E941B
S113088009060E94E7066C837D838E839F83009113
S1130890CA011091CB01A091BA01B091BB01E091C2
S11308A0BC01F091BD016091BE017091BF01409106
S11308B0C0015091C1012091C6013091C7018091BE
S11308C0C8019091C901BF93AF93FF93EF937F93B6
S11308D06F935F934F933F932F939F938F93B8019D
S11308E0110F880B990B0E941F0720E030E040E1B4
S11308F051E40E94AB0720E030E040EA50E40E945B
S1130900750620E030E040E052E40E940906688762
S113091079878A879B872C813D81B901330F880BA6
S1130920990B0E941F079B01AC01688579858A8514
S11309309B850E94080620E030E048EC52E40E94C7
S1130940AB070E94E7067F936F933D813F938C81B1
S11309508F93E0E6F1E0FF93EF930E9491080FB6C6
S1130960F894DEBF0FBECDBF5092CD014092CC01B2
S1130970F0920101E0920001E4CECF93C82F8730BA
S113098069F420915D0230915E0247E050E061E03D
S113099070E081EB91E00E945D080CC08A3019F48C
S11309A08DE00E94BD04E0ECF0E0808185FFFDCF86
S11309B0C093C60080E090E0CF9108956F927F923B
S11309C08F929F92AF92BF92CF92DF92EF92FF925B
S11309D00F931F93CF93DF93209122023091230230
S11309E0232B09F0DAC08C010F2EF2ED8F2EF1E0EB
S11309F09F2EF02DC0ECD0E00F2EF6ECCF2ED12C94
S1130A00F02D54010F2EF1ED6F2EF1E07F2EF02D1D
S1130A1088818823ECF7888184FDD2C0888183FD96
S1130A20D2C0F60180818D3011F08A3069F48AE0F9
S1130A30F4018083B8010E94BD0482ED91E090939B
S1130A40230280932202A9C0893039F090EE980FD6
S1130A509F3520F0803AB8F001C080E2F1E28F16B1
S1130A60F2E09F0629F4B80187E00E94BD04D0CFCC
S1130A7074019FEFE91AF90AF4018083B8010E9416
S1130A80BD044701C5CF8231D1F130F4833009F47C
S1130A909DC08830E9F0BCCF873129F08F37C1F091
S1130AA0853179F0B5CFF2ED8F16F1E09F0609F0AC
S1130AB008F4AECFF40131978081803209F052C03E
S1130AC0A7CF82ED881681E0980609F098F5A0CFAB
S1130AD092ED891691E0990609F008F499CFB801CE
S1130AE088E00E94BD04B80180E20E94BD04B80100
S1130AF088E00E94BD04E1E08E1A910889CFB80114
S1130B008DE00E94BD04F2ED8F16F1E09F0609F01E
S1130B1008F47ECF0F2EF2EDEF2EF1E0FF2EF02D34
S1130B20B801F70181917F010E94BD048E149F04D6
S1130B30B9F76ECFB80188E00E94BD04B80180E225
S1130B400E94BD04B80188E00E94BD04F1E08F1A40
S1130B50910882ED881681E0980661F7F3013196D9
S1130B604F0156CF7401F1E0EF1AF108B80188E0A3
S1130B700E94BD04B80180E20E94BD04B80188E06F
S1130B800E94BD044701EA14FB0409F441CFF701B4
S1130B9082917F01803251F73BCFE0912202F091A4
S1130BA02302CF0101969093230280932202808135
S1130BB08A3021F4109223021092220290E008C09D
S1130BC08EEF9FEF05C08FEF9FEF02C08FEF9FEF77
S1130BD0DF91CF911F910F91FF90EF90DF90CF9015
S1130BE0BF90AF909F908F907F906F90089587E60D
S1130BF08093C40088E18093C100E9E5F2E082E0DB
S1130C0091E0938382839183808395838483089581
S1130C105058BB27AA270E9420060C9471070E94F3
S1130C20630738F00E946A0720F039F49F3F19F4F3
S1130C3026F40C9460070EF4E095E7FB0C945A0735
S1130C40E92F0E94820758F3BA17620773078407D3
S1130C50950720F079F4A6F50C94A4070EF4E0951A
S1130C600B2EBA2FA02D0B01B90190010C01CA0162
S1130C70A0011124FF27591B99F0593F50F4503E0D
S1130C8068F11A16F040A22F232F342F4427585FFF
S1130C90F3CF469537952795A795F0405395C9F717
S1130CA07EF41F16BA0B620B730B840BBAF09150CF
S1130CB0A1F0FF0FBB1F661F771F881FC2F70EC06E
S1130CC0BA0F621F731F841F48F487957795679541
S1130CD0B795F7959E3F08F0B0CF9395880F08F02D
S1130CE09927EE0F9795879508950E9489060C948D
S1130CF071070E946A0758F00E94630740F029F4C4
S1130D005F3F29F00C945A0751110C94A5070C94D9
S1130D1060070E94820768F39923B1F3552391F386
S1130D20951B550BBB27AA2762177307840738F056
S1130D309F5F5F4F220F331F441FAA1FA9F335D0B3
S1130D400E2E3AF0E0E832D091505040E695001C67
S1130D50CAF72BD0FE2F29D0660F771F881FBB1F21
S1130D60261737074807AB07B0E809F0BB0B802DFF
S1130D70BF01FF2793585F4F3AF09E3F510578F02B
S1130D800C945A070C94A5075F3FE4F3983ED4F300
S1130D90869577956795B795F7959F5FC9F7880FFF
S1130DA0911D9695879597F90895E1E0660F771F51
S1130DB0881FBB1F621773078407BA0720F0621BE2
S1130DC0730B840BBA0BEE1F88F7E09508950E940D
S1130DD0EE066894B1110C94A50708950E948A0741
S1130DE088F09F5798F0B92F9927B751B0F0E1F0E8
S1130DF0660F771F881F991F1AF0BA95C9F714C098
S1130E00B13091F00E94A407B1E008950C94A407B6
S1130E10672F782F8827B85F39F0B93FCCF38695D0
S1130E2077956795B395D9F73EF49095809570952D
S1130E3061957F4F8F4F9F4F0895E89409C097FBAA
S1130E403EF490958095709561957F4F8F4F9F4F9D
S1130E509923A9F0F92F96E9BB279395F6958795E1
S1130E6077956795B795F111F8CFFAF4BB0F11F4A4
S1130E7060FF1BC06F5F7F4F8F4F9F4F16C088234B
S1130E8011F096E911C0772321F09EE8872F762F81
S1130E9005C0662371F096E8862F70E060E02AF0C2
S1130EA09A95660F771F881FDAF7880F96958795AE
S1130EB097F9089597F99F6780E870E060E00895D6
S1130EC09FEF80EC089500240A941616170618065E
S1130ED00906089500240A9412161306140605063A
S1130EE00895092E0394000C11F4882352F0BB0FCB
S1130EF040F4BF2B11F460FF04C06F5F7F4F8F4F2E
S1130F009F4F089557FD9058440F551F59F05F3F68
S1130F1071F04795880F97FB991F61F09F3F79F017
S1130F2087950895121613061406551FF2CF469599
S1130F30F1DF08C0161617061806991FF1CF86951B
S1130F407105610508940895E894BB2766277727FF
S1130F50CB0197F908950E94BE070C9471070E9473
S1130F60630738F00E946A0720F0952311F00C946F
S1130F705A070C94600711240C94A5070E94820759
S1130F8070F3959FC1F3950F50E0551F629FF001D8
S1130F90729FBB27F00DB11D639FAA27F00DB11DF1
S1130FA0AA1F649F6627B00DA11D661F829F22277A
S1130FB0B00DA11D621F739FB00DA11D621F839F01
S1130FC0A00D611D221F749F3327A00D611D231FD7
S1130FD0849F600D211D822F762F6A2F11249F5725
S1130FE050409AF0F1F088234AF0EE0FFF1FBB1F28
S1130FF0661F771F881F91505040A9F79E3F5105E7
S113100080F00C945A070C94A5075F3FE4F3983ED4
S1131010D4F3869577956795B795F795E7959F5F90
S1131020C1F7FE2B880F911D9695879597F9089522
S1131030FB01DC018D91019080190110D9F3990B0A
S113104008950F931F93CF93DF93FB01238121FD19
S113105003C08FEF9FEF2CC022FF16C0468157813B
S1131060248135814217530744F4A081B1819D0145
S11310702F5F3F4F318320838C93268137812F5FED
S11310803F4F3783268314C08B01EC01FB0100849E
S1131090F185E02D0995892BE1F6D80116968D91FD
S11310A09C911797019617969C938E931697CE0151
S11310B0DF91CF911F910F910895A0E0B0E0E3E696
S11310C0F8E00C94020B5B014A017901D9011396F3
S11310D02C9121FF1DC0C0E0D0E0C815D905D9F07E
S11310E08C016C01CA0CDB1CC8010C151D0571F0C8
S11310F00F5F1F4FD7011896ED91FC911997B70117
S1131100DC018C910995892B79F305C02196E5CFF3
S113111080E090E001C0CE01CDB7DEB7ECE00C94E6
S11311201E0BA0E0B0E0E7E9F8E00C940C0BAE0174
S11311304B5F5F4FFA0161917191AF0180915B0246
S113114090915C020E94A708E2E00C94280BABE0AB
S1131150B0E0EDEAF8E00C94FC0A6C017B018A0132
S1131160FC0117821682838181FFCCC1CE010196D6
S11311703C01F6019381F70193FD859193FF8191E1
S11311807F01882309F4BAC1853239F493FD85912E
S113119093FF81917F01853229F4B60190E00E948A
S11311A02108E7CF912C212C312CFFE1F315D8F045
S11311B08B3279F038F4803279F08332A1F4232D24
S11311C020611DC08D3261F0803369F4232D2160CC
S11311D016C0832D8260382EE32DE4603E2E2AC093
S11311E0F32DF8601DC037FC2DC020ED280F2A30E8
S11311F040F08E32B9F436FC81C1232D2064322EA6
S113120019C036FE06C08AE0989E200D1124922E45
S113121011C0EAE02E9E200D1124222EF32DF0623F
S11312203F2E08C08C3621F4832D8068382E02C0EE
S1131230883641F4F70193FD859193FF81917F01F5
S11312408111B3CF982F9F7D9554933028F40C5F70
S11312501F4F9FE399830DC0833631F0833771F0BC
S1131260833509F059C021C0F801808189830E5F5C
S11312701F4F88248394912C530113C02801F2E05A
S11312804F0E511CF801A080B18036FE03C0692DB9
S113129070E002C06FEF7FEFC5010E94930A4C011A
S11312A08201F32DFF773F2E16C0280122E0420E63
S11312B0511CF801A080B18036FE03C0692D70E096
S11312C002C06FEF7FEFC5010E94880A4C01F32D25
S11312D0F0683F2E820133FC1BC0822D90E08816FB
S11312E09906B0F4B60180E290E00E9421082A94A5
S11312F0F4CFF50137FC859137FE81915F01B6018A
S113130090E00E94210821102A9421E0821A910879
S11313108114910471F7E8C0843611F0893641F5DF
S1131320F80137FE07C060817181828193810C5F6F
S11313301F4F08C060817181072E000C880B990B28
S11313400E5F1F4FF32DFF763F2E97FF09C0909538
S11313508095709561957F4F8F4F9F4FF0683F2E1A
S11313602AE030E0A3010E949E0A882E861845C018
S1131370853731F4232D2F7EB22E2AE030E025C0AC
S1131380932D997FB92E8F36C1F018F4883579F0F2
S1131390B5C0803719F0883721F0B0C0E92FE0617B
S11313A0BE2EB4FE0DC0FB2DF460BF2E09C034FE6A
S11313B00AC0292F2660B22E06C028E030E005C0FE
S11313C020E130E002C020E132E0F801B7FE07C0BE
S11313D060817181828193810C5F1F4F06C060819F
S11313E0718180E090E00E5F1F4FA3010E949E0A6E
S11313F0882E8618FB2DFF773F2E36FE0DC0232D39
S11314002E7FA22E891458F434FE0BC032FC09C07E
S1131410832D8E7EA82E05C0B82CA32C03C0B82C17
S113142001C0B92CA4FE0FC0FE01E80DF11D80819E
S1131430803321F49A2D997EA92E09C0A2FE06C0FC
S1131440B394B39404C08A2D867809F0B394A3FCB2
S113145011C0A0FE06C0B21488F4280C922C9B186C
S11314600EC0B21460F4B60180E290E00E9421083C
S1131470B394F7CFB21418F42B1802C0982C212C73
S1131480A4FE10C0B60180E390E00E942108A2FEF1
S113149017C0A1FC03C088E790E002C088E590E093
S11314A0B6010CC08A2D867859F0A1FE02C08BE2E9
S11314B001C080E2A7FC8DE2B60190E00E94210801
S11314C0891438F4B60180E390E00E9421089A94CC
S11314D0F7CF8A94F301E80DF11D8081B60190E005
S11314E00E9421088110F5CF222009F442CEB601D2
S11314F080E290E00E9421082A94F6CFF6018681CA
S1131500978102C08FEF9FEF2B96E2E10C94180BAA
S1131510FC010590615070400110D8F780959095BA
S11315208E0F9F1F0895FC016150704001900110BF
S1131530D8F7809590958E0F9F1F0895FA01AA27DA
S1131540283051F1203181F1E8946F936E7F6E5F02
S11315507F4F8F4F9F4FAF4FB1E03ED0B4E03CD0B0
S1131560670F781F891F9A1FA11D680F791F8A1F93
S1131570911DA11D6A0F711D811D911DA11D20D0FA
S113158009F468943F912AE0269F11243019305DB4
S11315903193DEF6CF010895462F4770405D4193A5
S11315A0B3E00FD0C9F7F6CF462F4F70405D4A33F2
S11315B018F0495D31FD4052419302D0A9F7EACFBA
S11315C0B4E0A6959795879577956795BA95C9F7E9
S11315D000976105710508959B01AC010A2E0694DC
S11315E05795479537952795BA95C9F7620F731F95
S11315F0841F951FA01D08952F923F924F925F92D2
S11316006F927F928F929F92AF92BF92CF92DF920E
S1131610EF92FF920F931F93CF93DF93CDB7DEB773
S1131620CA1BDB0B0FB6F894DEBF0FBECDBF099407
S11316302A88398848885F846E847D848C849B845E
S1131640AA84B984C884DF80EE80FD800C811B816C
S1131650AA81B981CE0FD11D0FB6F894DEBF0FBE9B
S10D1660CDBFED010895F894FFCF0B
S113166AE8030000000300000000BD04DE040000DB
S113167A70005B54656D702854433734293A202529
S113168A64435D5B54656D70284D4350293A2025A7
S113169A642E2564465D5B436F6E76657274656479
S11316AA20566F6C746167653A2025642E2564564A
S11316BA5D5B4441433A2025642E2564565D0A0045
S11316CA5B54656D702854433734293A2025642EB7
S11316DA2564465D5B54656D70284D4350293A2054
S11316EA25642E2564465D5B436F6E766572746568
S11316FA6420566F6C746167653A2025642E2564EC
S113170A565D5B4441433A2025642E2564565D0A9E
S10D171A002A72696E672A0A0000B3
S9030000FC
